:0400000026EF01F0F6
:10000800FACF4EF0FBCF4FF0E9CF50F0EACF51F0E6
:10001800E1CF52F0E2CF53F0D9CF54F0DACF55F018
:10002800F3CF56F0F4CF57F0F6CF58F0F7CF59F09A
:10003800F8CF5AF0F5CF5BF0A4AA01D001D02CD0AC
:1000480020D01FD00F010F0122A301D001D019D059
:100058000F010F0122930F010F0122990F010F01C8
:1000680022894C6E010E076E4C504D6E0A0E086EBA
:100078004D50100E0A6E7A0E096EDAEC1EF001D0A1
:1000880000D0A4AA01D001D0DDD71DCF5CF05CC0A0
:1000980001F0DAEC1FF000D0F2A201D001D0B5D007
:1000A800F292B0EC1FF0A0D0000EF66E000EF76EC4
:1000B8001A0EF86E100EF56E0C00B40E4C6E870E0C
:1000C800E82EFED74C2EFCD7A0D0000EF66E000E00
:1000D800F76E1A0EF86E140EF56E0C00B40E4C6E18
:1000E800870EE82EFED74C2EFCD78FD0000EF66E6A
:1000F800000EF76E1A0EF86E800EF56E0C00B40E38
:100108004C6E870EE82EFED74C2EFCD7000EF66EEE
:10011800000EF76E1A0EF86E010EF56E0C00B40E96
:100128004C6E870EE82EFED74C2EFCD7000E476E7D
:10013800000E466EA2EC18F068D04C6E140E016EDC
:100148004C50DAEC1FF0875087B801D001D030D07E
:10015800100E036E510E026E47EC1DF0480E4C6EE9
:10016800CF0EE82EFED74C2EFCD70001000E036EF2
:100178000001F90E026E47EC1DF0480E4C6ECF0ED2
:10018800E82EFED74C2EFCD7100E036E820E026EA0
:1001980047EC1DF0480E4C6ECF0EE82EFED74C2EC5
:1001A800FCD7D4C046F0D5C047F0A2EC18F000D078
:1001B800480E4C6ECF0EE82EFED74C2EFCD7000E04
:1001C800036E0A0E026E47EC1DF0000E036E0D0E54
:1001D800026E47EC1DF0B40E4C6E870EE82EFED76B
:1001E8004C2EFCD712D011D000010001E5510C0AA9
:1001F800D8B45AD7010AD8B468D7030AD8B476D77E
:10020800010AD8B49AD701D000D05BC0F5FF5AC014
:10021800F8FF59C0F7FF58C0F6FF57C0F4FF56C0A3
:10022800F3FF55C0DAFF54C0D9FF53C0E2FF52C0F4
:10023800E1FF51C0EAFF50C0E9FF4FC0FBFF4EC0CD
:08024800FAFF1100A8EF1EF0FF
:101000001F1C1F1E1F1E1F1F1E1F1E1F01000A0068
:101010006400E80310274A616E4665624D617241C3
:1010200070724D61794A756E4A756C41756753658A
:10103000704F63744E6F764465630053756E4D6FE9
:101040006E5475655765645468754672695361746A
:101050000050574D20436C61763A00496E69742008
:101060006F6B00506F7461723A00436F64653A00B1
:10107000253364487A0025336400796573004F4B4B
:101080002100250000009EA001D001D020D0000149
:101090000001DC4BDD2B00010001DC51020ADD11F7
:1010A000D8A401D001D011D08C720001D6CFD6F0D7
:1010B00000010001D76B000ED66E000E000100018A
:1010C000DD6F000E0001DC6F00D09E9000D00101AA
:1010D000010E000100017B6F0101A80E00017A6F73
:1010E000100E000100017D6F700E00017C6FD6C0F4
:1010F0007EF0D7C07FF0000106EC0BF087A801D08E
:1011000001D00DD10001DAEC12F0000191C0DAF04B
:10111000000192C0DBF0DAC09EF0DBC09FF000015E
:10112000D0EC15F00001C26F010E00010001666FE6
:101130000001C2510001C36F000E00010001676F82
:101140000001C351100E00010001696F630E000120
:10115000686F000102EC1EF0480E0001C26FCF0E56
:10116000E82EFED7C22FFCD70001C26F010E00018E
:101170000001666F0001C2510001C36F060E00013D
:101180000001676F0001C3510101010E0001000160
:10119000696F0101170E0001686F000102EC1EF07B
:1011A000480E0001C26FCF0EE82EFED7C22FFCD72B
:1011B0000001C26F010E00010001666F0001C25103
:1011C0000001C36F090E00010001676F0001C351E8
:1011D000100E00010001696F820E0001686F0001AE
:1011E00002EC1EF0480E0001C26FCF0EE82EFED7B3
:1011F000C22FFCD70001C26F020E00010001666F12
:101200000001C2510001C36F0B0E00010001676FA6
:101210000001C3510101010E00010001696F0101CC
:10122000A80E0001686F000102EC1EF0480E0001DC
:10123000C26FCF0EE82EFED7C22FFCD70001C26FBF
:10124000020E00010001666F0001C2510001C36F70
:10125000000E00010001676F0001C351100E000174
:101260000001696F6A0E0001686F000102EC1EF058
:10127000480E0001C26FCF0EE82EFED7C22FFCD75A
:101280000001C26F020E00010001666F0001C25131
:101290000001C36F050E00010001676F0001C3511B
:1012A0000001000E00010001696F0001F00E000155
:1012B000686F000102EC1EF0480E0001C26FCF0EF5
:1012C000E82EFED7C22FFCD70001C26F020E00012C
:1012D0000001666F0001C2510001C36F0A0E0001D8
:1012E0000001676F0001C351100E00010001696F1A
:1012F0007E0E0001686F000102EC1EF0480E000136
:10130000C26FCF0EE82EFED7C22FFCD7DAC09EF0F8
:10131000DBC09FF00001D0EC15F001D000D087B801
:1013200001D001D072D1000E00010001636F640E84
:101330000001626FD00E00010001F92500010001DB
:10134000606F0001616BFF0E00016123000174EC0E
:101350001EF000010001FB510001000160250001A9
:10136000C26F000E0001000161210001C36F000E79
:1013700000010001636F0A0E0001626FD00E0001D0
:101380000001FA2500010001606F0001616BFF0E92
:1013900000016123000174EC1EF0000100016051A6
:1013A0000001C2250001C46F00010001615100016C
:1013B000C3210001C56FD00E0001C425000100014A
:1013C000686FFF0E0001C5210001696F000187EC05
:1013D0001DF068C07EF069C07FF06AC080F0AE0E7C
:1013E00000010001816F230E00010001826F410E98
:1013F00000010001836F0001ECEC0EF07EC0C6F02E
:101400007FC0C7F080C0C8F0C6C0BCF0C7C0BDF088
:10141000C8C0BEF0000172EC1CF0BCC0C9F0BDC079
:10142000CAF0BEC0CBF0C9C08FF0CAC090F0CBC02C
:1014300091F00001FCEC10F08FC0D4F090C0D5F01A
:10144000480E0001C26FCF0EE82EFED7C22FFCD788
:101450000001C26F010E00010001666F0001C25160
:101460000001C36F000E00010001676F0001C3514E
:10147000100E00010001696F550E0001686F000138
:1014800002EC1EF0480E0001C26FCF0EE82EFED710
:10149000C22FFCD700010001E5510F0AD8B401D0DA
:1014A00001D01DD00001C26F010E00010001666F66
:1014B0000001C2510001C36F050E00010001676FFA
:1014C0000001C3510001000E00010001696F00011D
:1014D000F90E0001686F000102EC1EF000D0480E0A
:1014E0000001C26FCF0EE82EFED7C22FFCD7100E20
:1014F00000010001616F820E0001606F000109ECC4
:101500001AF0480E0001C26FCF0EE82EFED7C22F90
:10151000FCD70001C26F020E00010001666F0001DE
:10152000C2510001C36F0B0E00010001676F000183
:10153000C3510101010E00010001696F0101A80EF4
:101540000001686F000102EC1EF0480E0001C26F3E
:10155000CF0EE82EFED7C22FFCD70001C26F020EBD
:1015600000010001666F0001C2510001C36F000E4F
:1015700000010001676F0001C351100E000100015E
:10158000696F6A0E0001686F000102EC1EF0000135
:10159000C26F020E00010001666F0001C25100011E
:1015A000C36F0A0E00010001676F0001C351100EE6
:1015B00000010001696F7E0E0001686F000102ECFE
:1015C0001EF0480E0001C26FCF0EE82EFED7C22FCC
:1015D000FCD7D4C09EF0D5C09FF00001D0EC15F030
:1015E00000D086B601D001D005D000010001D44B57
:1015F000D52B00D086B801D001D007D00001000162
:10160000D407D8A0D50701D000D012000001000EE9
:1016100000010001866F00017E0E0001856FDAD1A6
:10162000000100019051250AD8B401D001D00CD09E
:101630007AC0D9FF7BC0DAFF000190C0DFFF000154
:1016400000017A4B7B2BC6D1000E000100018F6F89
:10165000000E00018E6F0001826F000E000100017C
:10166000886F0001825100017CC0F6FF00017DC03F
:10167000F7FF000EF86E08000001F5CF60F00001E2
:1016800032EC1FF0D8A001D001D05AD0000E0001DA
:1016900000018F6F000E00018E6F00D08EC060F0D1
:1016A0008FC061F0000E00010001636F0A0E00019F
:1016B000626F000174EC1EF0000160C08EF000014A
:1016C00061C08FF000017CC0F6FF00017DC0F7FF14
:1016D000000EF86E0800F5CF82F0D00E00018225D2
:1016E0000001836F0001846BFF0E00018423000161
:1016F0008351000100018E27000184510001000187
:101700008F23000100017C4B7D2B00017CC0F6FF84
:1017100000017DC0F7FF000EF86E08000001F5CF54
:1017200060F0000132EC1FF0D8B001D001D0B6D784
:1017300007D006D005D06CD126D025D04BD123D0F0
:10174000000100017C510001826F000100017D5108
:101750000001836F00017C4B7D2B82C0F6FF83C0AC
:10176000F7FF000EF86E08000001F5CF90F00001C1
:101770009051000AD8B44CD1640AD8B404D00D0AF0
:10178000D8B401D027D185C0D9FF86C0DAFF0001C7
:10179000DECF89F00001DDCF8AF0020E00010001EA
:1017A0008527000E00018623000100018AAF01D0C9
:1017B00001D00CD0030E00010001881300010001CC
:1017C000896D00018A1FD8B08A2B00D00001826F7A
:1017D000010E00010001906F000182510001000123
:1017E0009051050AD8A401D001D002D030D02FD01A
:1017F000000100019051020D0C0EF324F66E100E44
:10180000F420F76EF86A000EF8220900F5CF82F096
:101810000900F5CF83F00001825100010001895DCC
:1018200000018351000100018A59D8B001D001D0D4
:1018300002D00DD00CD000010001902B000100015E
:101840009051050AD8A401D001D0D2D700D0000110
:1018500000018F518E11D8B401D001D00ED00001FB
:1018600000018851030BD8B401D001D006D000018B
:1018700000018E07D8A08F0700D0800E0001000164
:1018800090BF7F0E826F000100018E5100010001A8
:10189000905D000100018F51800A00018259D8B08B
:1018A00001D001D00ED000010001905100010001D3
:1018B0008E5F000E000190BFFF0E000100018F5BE4
:1018C00008D0000E000100018F6F000E00018E6F26
:1018D00000D0000100018F518E11D8B401D001D089
:1018E00019D000D07AC0D9FF7BC0DAFF200EDF6E9E
:1018F000000100017A4B7B2B000100018E07D8A06C
:101900008F0700018F518E11D8A401D001D0EAD7E2
:1019100001D000D0000100018851030BD8B401D0E0
:1019200001D00BD07AC0D9FF7BC0DAFF2D0EDF6E5D
:10193000000100017A4B7B2B00D090C087F03FD094
:10194000000100018751020D0C0EF324F66E100EFB
:10195000F420F76EF86A000EF82209000001F5CFB6
:1019600062F00A000001F5CF63F089C060F08AC020
:1019700061F000016EEC1AF0000160C068F0000137
:1019800061C069F0000E000100016B6F0A0E0001DA
:101990006A6F0001D4EC1BF0000100016851300FA8
:1019A00000010001906F7AC0D9FF7BC0DAFF00010F
:1019B00090C0DFFF000100017A4B7B2B00D00001BB
:1019C0000001870700018729D8A401D001D0B8D72A
:1019D00001D000D0000100017C510001826F0001A4
:1019E00000017D510001836F00017C4B7D2B82C083
:1019F000F6FF83C0F7FF000EF86E08000001F5CF78
:101A000090F00001906701D001D00AD601D000D03B
:101A10007AC0D9FF7BC0DAFF000EDF6E00D0120063
:101A20000F0E0001AF6F0001A9C0B0F00001AAC005
:101A3000B1F00001ABC0B2F00001AF290001B36FFB
:101A400005D00001D890B233B133B0330001B32FC9
:101A5000F8D70001B05100010001B66F0F0E000170
:101A6000AF6F0001ACC0B0F00001ADC0B1F000013B
:101A7000AEC0B2F00001AF290001B36F05D0000184
:101A8000D890B233B133B0330001B32FF8D700018F
:101A9000B05100010001B56F00010001B651D8B48A
:101AA00001D001D019D000010001B55100010001A1
:101AB000B66101D001D017D000010001B651000875
:101AC00000010001B5250001AF6F190E0001AF5DE7
:101AD000D8A001D001D007D0ACC0A9F0ADC0AAF009
:101AE000AEC0ABF078D100010001B551D8B401D03F
:101AF00001D019D000010001B65100010001B5610B
:101B000001D001D017D000010001B551000800013B
:101B10000001B6250001AF6F190E0001AF5DD8A01E
:101B200001D001D007D0A9C0A9F0AAC0AAF0ABC0CB
:101B3000ABF051D10001AF6F060E00010001B46F90
:101B40000001AF5100010001ABAF01D001D004D0C2
:101B500000010001B48F00D000010001AEAF01D040
:101B600001D003D000010001B48D00010001AA8F53
:101B7000FF0E00010001A917FF0E00010001AA17C6
:101B8000000E00010001AB1700010001AD8FFF0E38
:101B900000010001AC17FF0E00010001AD17000E9F
:101BA00000010001AE1700010001B5510001000164
:101BB000B66101D001D03AD000D00001D890000128
:101BC000AC370001AD370001AE3700010001B507A9
:101BD00000010001B55100010001B619D8B401D0CF
:101BE00001D019D000010001B4070001B451070B66
:101BF000D8A401D001D0E1D70ED00DD00CD0000177
:101C0000D8900001AB330001AA330001A9330001D1
:101C10000001B62B00D000010001B5510001000108
:101C2000B66301D001D0EBD744D043D0000100010E
:101C3000B65100010001B56101D001D03AD000D009
:101C40000001D8900001A9370001AA370001AB3785
:101C500000010001B60700010001B55100010001BB
:101C6000B619D8B401D001D019D000010001B407D1
:101C70000001B451070BD8A401D001D0E1D70ED098
:101C80000DD00CD00001D8900001AE330001AD336F
:101C90000001AC3300010001B52B00D000010001B0
:101CA000B55100010001B66301D001D0EBD701D0DE
:101CB00000D000010001B4AF01D001D018D0FF0E58
:101CC00000010001A91BFF0E00010001AA1BFF0E6D
:101CD00000010001AB1B010E00010001A927000E4D
:101CE00000010001AA23000E00010001AB23000146
:101CF0000001B4AD01D001D019D0FF0E00010001E8
:101D0000AC1BFF0E00010001AD1BFF0E0001000126
:101D1000AE1B010E00010001AC27000E0001000106
:101D2000AD23000E00010001AE2300D00001AF6F13
:101D3000000E00010001B46F0001AF51000100016D
:101D4000A95100010001AC2700010001AA510001C6
:101D50000001AD2300010001AB5100010001AE23E1
:101D600000010001AEAF01D001D021D0FF0E000173
:101D70000001AC1BFF0E00010001AD1BFF0E0001B6
:101D80000001AE1B010E00010001AC27000E000196
:101D90000001AD23000E00010001AE230001AF6F72
:101DA000010E00010001B46F0001AF5100D0ACC0C2
:101DB00060F0ADC061F0AEC062F0B6C063F0B4C018
:101DC00064F00001B7EC13F060C0A9F061C0AAF0A4
:101DD00062C0ABF000D012000F0E0001846F000152
:101DE0007EC085F000017FC086F0000180C087F0D2
:101DF000000184290001886F05D00001D890873345
:101E0000863385330001882FF8D700018551000102
:101E10000001896F0001896701D001D00ED0000E4A
:101E2000000100017E6F000E000100017F6F000EB7
:101E300000010001806FE4D0E3D00F0E0001846F39
:101E4000000181C085F0000182C086F0000183C0DE
:101E500087F0000184290001886F05D00001D89027
:101E60008733863385330001882FF8D700018551E9
:101E7000000100018E6F00018E6701D001D00ED0ED
:101E8000000E000100017E6F000E000100017F6F57
:101E9000000E00010001806FB3D0B2D0000100013C
:101EA0008E517B0F00010001892780C08EF0000158
:101EB0008351000100018E1B800E000100018E176E
:101EC000000100017F8F00010001828FFF0E0001E1
:101ED00000018117FF0E000100018217000E0001B2
:101EE00000018317000E000100018A6F000E00013F
:101EF00000018B6F000E000100018C6F0001846FE8
:101F0000070E000100018D6F0001845100D0000117
:101F100000017EA101D001D013D000010001815148
:101F2000000100018A270001000182510001000127
:101F30008B23000100018351000100018C2300D09C
:101F40000001D8900001803300017F3300017E330F
:101F50000001D890000181370001823700018337EA
:101F6000000100018D2FD3D700D00001846F090E2E
:101F7000000100018D6F0001845100D000010001BB
:101F80007EA101D001D013D00001000181510001D8
:101F900000018A27000100018251000100018B230A
:101FA000000100018351000100018C2300D00001D9
:101FB000D8900001803300017F3300017E3300019F
:101FC000D89000018C3300018B3300018A3300016B
:101FD00000018D2FD3D700D08AC060F08BC061F094
:101FE0008CC062F089C063F08EC064F00001B7EC71
:101FF00013F060C07EF061C07FF062C080F000D05E
:1020000012000F0E0001736F00016DC074F000012B
:102010006EC075F000016FC076F0000173290001F9
:10202000776F05D00001D890763375337433000193
:10203000772FF8D700017451000100017C6F000177
:102040007C6701D001D00ED0000E000100016D6F41
:10205000000E000100016E6F000E000100016F6FA5
:10206000CAD0C9D00F0E0001736F000170C074F0A8
:10207000000171C075F0000172C076F00001732993
:102080000001776F05D00001D89076337533743333
:102090000001772FF8D700017451000100017D6F16
:1020A00000017D6701D001D00ED0000E00010001BB
:1020B0006D6F000E000100016E6F000E0001000147
:1020C0006F6F99D098D0000E00010001796F000E5B
:1020D000000100017A6F000E000100017B6F00011A
:1020E00000017D51890F000100017C5F6FC07DF010
:1020F00000017251000100017D1B800E00010001F2
:102100007D17000100016E8FFF0E000100016D17A9
:10211000FF0E000100016E17000E000100016F1795
:1021200000010001718FFF0E000100017017FF0E0A
:10213000000100017117000E00010001721700017B
:10214000736F180E00010001786F000173510001D8
:10215000D8900001793700017A3700017B37000100
:1021600000017051000100016D5D0001000171511D
:10217000000100016E5900010001725100010001CF
:102180006F59D8A001D001D015D0000100017051C5
:10219000000100016D5F00010001715100010001AB
:1021A0006E5B000100017251000100016F5B0001D4
:1021B000000179810001D89000016D3700016E3770
:1021C00000016F3700010001782FC1D700D079C01E
:1021D00060F07AC061F07BC062F07CC063F07DC0CB
:1021E00064F00001B7EC13F060C06DF061C06EF0F8
:1021F00062C06FF000D012000F0E0001936F00015B
:102200008FC094F0000190C095F0000191C096F04D
:10221000000193290001976F05D00001D8909633F3
:10222000953394330001972FF8D7000194510001A2
:1022300000019D6F00019D6701D001D00FD0000EFD
:10224000000100018F6F000E0001906F000E000171
:10225000916F000E0001926FC0D0BFD0170E000129
:10226000936F00018FC094F0000190C095F00001C1
:1022700091C096F0000193290001976F05D00001ED
:10228000D8909633953394330001972FF8D70001F7
:10229000945100010001986F00010001908FFF0E22
:1022A000000100018F17FF0E000100019017000EC2
:1022B000000100019117000100018F510001000190
:1022C000996F00010001905100019A6F0001915136
:1022D00000019B6F00019C6B8E0E000100019D5F51
:1022E000000100019DAF01D001D029D00001000103
:1022F0009D51800A8F0FD8B001D001D010D0000EB0
:10230000000100018F6F000E0001906F000E0001B0
:10231000916F000E0001926F60D05FD000D000017D
:10232000D89000019C3300019B3300019A330001D7
:102330009933000100019D3FF2D72ED02DD0170E0A
:10234000000100019D6501D001D01ED0000E0001EA
:1023500000018F6F000E0001906F000E0001916F61
:10236000000E0001926F39D038D00ED00001D89005
:102370000001993700019A3700019B3700019C3713
:10238000000100019D0700D0000100019D6701D000
:1023900001D0ECD701D000D0000100019851D8B491
:1023A00001D001D011D0000100019C1F00019B1F32
:1023B00000019A1F0001996D000E00019A2300018F
:1023C0009B2300019C2300D099C08FF09AC090F00D
:1023D0009BC091F09CC092F000D012000001686F89
:1023E000000E000100016A6F000168510001000148
:1023F00067AF01D001D019D000010001671F0001B3
:10240000661F0001651F0001646D000E0001652359
:1024100000016623000167230001686F010E0001BF
:1024200000016A6F0001685100D00001000163AF34
:1024300001D001D015D000010001631F0001621F0F
:102440000001611F0001606D000E000161230001A9
:10245000622300016323010E000100016A1B00D00A
:10246000000E000100016B6F000E00016C6F000E8A
:1024700000016D6F000E00016E6F000100016751D9
:10248000641165116611D8B401D001D071D000017A
:10249000686F010E00010001696F000168510ED0E4
:1024A0000001D890000164370001653700016637EC
:1024B0000001673700010001692B00D00001000115
:1024C00067AF01D001D0ECD701D000D00001D89087
:1024D00000016B3700016C3700016D3700016E376A
:1024E00000010001645100010001605D0001000174
:1024F00065510001000161590001000166510001B0
:102500000001625900010001675100010001635997
:10251000D8A001D001D01CD00001000164510001FD
:102520000001605F00010001655100010001615B75
:1025300000010001665100010001625B0001000121
:10254000675100010001635B000100016B8100D055
:102550000001D89000016733000166330001653344
:102560000001643300010001692FB0D701D000D011
:10257000000100016A51D8B401D001D011D000018E
:1025800000016E1F00016D1F00016C1F00016B6DCB
:10259000000E00016C2300016D2300016E2300D0AA
:1025A0006BC060F06CC061F06DC062F06EC063F033
:1025B00000D01200C28200D0C2B201D001D0FCD73C
:1025C00000D0340EC35C0B0EC458D8A001D001D08B
:1025D00002D08F8002D08F9000D00001C3CF93F043
:1025E0000001C4CF94F000010001956B0001966BCF
:1025F000FF0E00010001646F030E0001656F000E05
:102600000001666F000E0001676F93C060F094C018
:1026100061F095C062F096C063F0000180EC1BF0A1
:1026200060C06CF061C06DF062C06EF063C06FF0AE
:10263000FF0E00010001706F0F0E0001716F000EA0
:102640000001726F000E0001736F000101EC17F0C2
:102650006CC099F06DC09AF06EC09BF06FC09CF09A
:10266000640E00010001646F000E0001656F000E32
:102670000001666F000E0001676F99C060F09AC09C
:1026800061F09BC062F09CC063F0000180EC1BF025
:1026900060C06CF061C06DF062C06EF063C06FF03E
:1026A000FF0E00010001706F030E0001716F000E3C
:1026B0000001726F000E0001736F000101EC17F052
:1026C0006CC097F06DC098F097C0E4F00101010E66
:1026D000000100017B6F0101170E00017A6F100EDF
:1026E000000100017D6F760E00017C6F640E000119
:1026F0000001646F000E0001656F000E0001666F3F
:10270000000E0001676F99C060F09AC061F09BC035
:1027100062F09CC063F0000180EC1BF060C06CF0C4
:1027200061C06DF062C06EF063C06FF0FF0E00011B
:102730000001706F030E0001716F000E0001726FD7
:10274000000E0001736F000101EC17F06CC07EF009
:102750006DC07FF06EC080F06FC081F0000106ECAC
:102760000BF099C091F09AC092F000D012000001D5
:1027700000016351D8B401D001D00CD00001000198
:1027800060510001611100016211D8A401D001D093
:102790001CD000D0000E00010001606F000E00018F
:1027A0000001616F000E00010001626FA5D0A4D08E
:1027B0000CD000010001632B0001D89000016233AE
:1027C000000161330001603300D0000E0001000100
:1027D00060150001656F000E000100016115000128
:1027E000666FFE0E0001000162150001676F0001B7
:1027F000655166116711D8A401D001D0DAD719D07C
:1028000018D000010001632B010E000100016027B8
:10281000000E000100016123000E0001000162238F
:102820000001D89000016233000161330001603380
:1028300000D0000E0001000160150001656F000E60
:102840000001000161150001666FFF0E000100012B
:1028500062150001676F0001655166116711D8A408
:1028600001D001D0CED70DD00CD0000100016307FC
:102870000001D89000016037000161370001623724
:1028800000D00001000161AF01D001D0EED70001FE
:10289000000163B101D001D004D000010001619FAB
:1028A00000D00001D89063330001000163510001A2
:1028B000676F666B656B0001655100010001601375
:1028C0000001665100010001611300016751000120
:1028D00000016213000100016451D8B401D001D09D
:1028E00004D000010001628F00D060C060F061C0C0
:1028F00061F062C062F000D01200200E0F010F01E3
:10290000266F9280010E0F010F01256F000E0F013F
:102910000F01246F000E0F010F01236F000EC26E16
:10292000000EC16E800EC06E010EC26E98908F9028
:10293000B40E0001606F870EE82EFED7602FFCD723
:10294000B40E0001606F870EE82EFED7602FFCD713
:10295000000EF66E000EF76E1A0EF86E330EF56E60
:102960000C00B40E0001606F870EE82EFED7602FBA
:10297000FCD7000EF66E000EF76E1A0EF86E330ED0
:10298000F56E0C00B40E0001606F870EE82EFED7C6
:10299000602FFCD7000EF66E000EF76E1A0EF86E62
:1029A000330EF56E0C00B40E0001606F870EE82E3A
:1029B000FED7602FFCD7000EF66E000EF76E1A0ED3
:1029C000F86E380EF56E0C00B40E0001606F870EC5
:1029D000E82EFED7602FFCD7000EF66E000EF76EC5
:1029E0001A0EF86E0C0EF56E0C00B40E0001606F3E
:1029F000870EE82EFED7602FFCD7000EF66E000E75
:102A0000F76E1A0EF86E060EF56E0C00B40E00018D
:102A1000606F870EE82EFED7602FFCD7000EF66E93
:102A2000000EF76E1A0EF86E010EF56E0C00B40E65
:102A30000001606F870EE82EFED7602FFCD7000ED6
:102A4000F66E000EF76E1A0EF86E800EF56E0C0024
:102A5000B40E0001606F870EE82EFED7602FFCD702
:102A600012000F0E3B6E35C03CF036C03DF037C053
:102A70003EF03B283F6E04D0D8903E323D323C328F
:102A80003F2EFAD73C50406E406601D001D008D0AE
:102A9000000E356E000E366E000E376E80D07FD081
:102AA0000F0E3B6E38C03CF039C03DF03AC03EF0EE
:102AB0003B283F6E04D0D8903E323D323C323F2E10
:102AC000FAD73C50456E456601D001D008D0000EC3
:102AD000356E000E366E000E376E61D060D04550F8
:102AE0007B0F402637C045F03A50451A800E4516F8
:102AF000368E398EFF0E3816FF0E3916000E3A1636
:102B0000000E416E000E426E000E436E3B6E070ECD
:102B1000446E3B5000D035A001D001D007D03850D2
:102B20004126395042223A50432200D0D8903732C1
:102B300036323532D890383639363A36442EEBD7DD
:102B400000D03B6E090E446E3B5000D035A001D042
:102B500001D007D038504126395042223A50432202
:102B600000D0D890373236323532D89043324232A4
:102B70004132442EEBD700D041C001F042C002F0F8
:102B800043C003F040C004F045C005F01DEC19F04F
:102B900001C035F002C036F003C037F000D012009B
:102BA000FF0E000100019E5D030E00019F59D8B089
:102BB00001D001D08DD00001F5C0A0F00001F6C019
:102BC000A1F00001F7C0A2F00001F8C0A3F0040ECC
:102BD000D8900001A037A137A237A337E82EF8D745
:102BE000A0C064F0A1C065F0A2C066F0A3C067F009
:102BF000000E00010001606FC00E0001616FA80EA1
:102C00000001626F000E0001636F0001EEEC11F035
:102C100060C06FF061C070F062C071F063C072F0AC
:102C2000000194EC19F06FC081F070C082F071C0A7
:102C300083F0C00E00010001706F7F0E00010001E3
:102C4000716F440E00010001726F9EC068F09FC05A
:102C500069F000010CEC1FF068C06DF069C06EF007
:102C60006AC06FF0000101EC10F06DC07EF06EC024
:102C70007FF06FC080F00001ECEC0EF07EC08FF0B2
:102C80007FC090F080C091F00001FCEC10F08FC08C
:102C90009EF090C09FF0000100019EA101D0BB8A70
:102CA000000100019EB101D0BB9ABB9800019EC0FB
:102CB000A0F000019FC0A1F00001D890A133A03383
:102CC0000001D890A133A0330001A051BC6E00D008
:102CD00012000F0E146E10C015F011C016F012C0C5
:102CE00017F01428186E04D0D89017321632153207
:102CF000182EFAD715501E6E1E6601D001D00AD0CC
:102D0000000E106E000E116E000E126E000E136E8D
:102D100077D076D0170E146E10C015F011C016F0D3
:102D200012C017F01428186E04D0D890173216323B
:102D30001532182EFAD71550196E118EFF0E101677
:102D4000FF0E1116000E121610501A6E11501B6E47
:102D500012501C6E1D6A8E0E1E5E1EAE01D001D07A
:102D60001BD01E50800A8F0FD8B001D001D00BD0DD
:102D7000000E106E000E116E000E126E000E136E1D
:102D80003FD03ED000D0D8901D321C321B321A32B8
:102D90001E3EF9D71ED01DD0170E1E6401D001D0E3
:102DA00012D0000E106E000E116E000E126E000E8C
:102DB000136E26D025D007D0D8901A361B361C3675
:102DC0001D361E0600D01E6601D001D0F5D701D0F9
:102DD00000D01950D8B401D001D009D01D1E1C1E3E
:102DE0001B1E1A6C000E1B221C221D2200D01AC0B2
:102DF00010F01BC011F01CC012F01DC013F000D069
:102E00001200000E00010001756F000E0001766FC8
:102E1000000E0001776F000E0001786F00010001C5
:102E20007351701171117211D8B401D001D070D0EA
:102E30000001746F010E00010001796F00017451EF
:102E40000ED00001D89000017037000171370001E9
:102E500072370001733700010001792B00D00001A7
:102E6000000173AF01D001D0ECD701D000D0000138
:102E7000D8900001753700017637000177370001DF
:102E80007837000100017051000100016C5D000104
:102E900000017151000100016D59000100017251E2
:102EA000000100016E590001000173510001000191
:102EB0006F59D8A001D001D01CD000010001705181
:102EC000000100016C5F000100017151000100016F
:102ED0006D5B000100017251000100016E5B000199
:102EE00000017351000100016F5B00010001758159
:102EF00000D00001D890000173330001723300014B
:102F000071330001703300010001792FB0D700D078
:102F100075C06CF076C06DF077C06EF078C06FF061
:102F200012000F0E2A6E24C02BF025C02CF026C0F4
:102F30002DF02A282E6E04D0D8902D322C322B3230
:102F40002E2EFAD72B50336E336601D001D008D025
:102F5000000E246E000E256E000E266E70D06FD00F
:102F60000F0E2A6E27C02BF028C02CF029C02DF0A0
:102F70002A282E6E04D0D8902D322C322B322E2EB1
:102F8000FAD72B50346E346601D001D008D0000E31
:102F9000246E000E256E000E266E51D050D0000E0D
:102FA000306E000E316E000E326E3450890F335E7B
:102FB00026C034F02950341A800E3416258EFF0EA8
:102FC0002416FF0E2516000E2616288EFF0E271635
:102FD000FF0E2816000E29162A6E180E2F6E2A5084
:102FE000D8903036313632362750245C2850255858
:102FF00029502658D8A001D001D007D02750245EF0
:103000002850255A2950265A3080D8902436253603
:1030100026362F2EE5D700D030C001F031C002F0A7
:1030200032C003F033C004F034C005F01DEC19F0D9
:1030300001C024F002C025F003C026F000D0120029
:10304000096E000E0B6E095008AE01D001D00DD0F4
:10305000081E071E061E056C000E06220722082207
:10306000096E010E0B6E095000D004AE01D001D0E4
:103070000BD0041E031E021E016C000E022203224E
:103080000422010E0B1A00D0000E0C6E000E0D6E05
:10309000000E0E6E000E0F6E085005100610071081
:1030A000D8B401D001D036D0096E010E0A6E095095
:1030B00007D0D89005360636073608360A2A00D0DB
:1030C00008AE01D001D0F5D701D000D0D8900C3691
:1030D0000D360E360F360550015C0650025807506B
:1030E000035808500458D8A001D001D00AD0055088
:1030F000015E0650025A0750035A0850045A0C80C9
:1031000000D0D89008320732063205320A2EDED7B8
:1031100001D000D00B50D8B401D001D009D00F1E7F
:103120000E1E0D1E0C6C000E0D220E220F2200D062
:103130000CC001F00DC002F00EC003F00FC004F08F
:1031400000D01200FF0E465C030E4758D8B001D0E5
:1031500001D072D00001F5C048F00001F6C049F07E
:103160000001F7C04AF00001F8C04BF0040ED890FF
:10317000483649364A364B36E82EF9D748C005F06E
:1031800049C006F04AC007F04BC008F0000E016EBF
:10319000C00E026EA80E036E000E046E20EC18F036
:1031A00001C01FF002C020F003C021F004C022F0D3
:1031B000BCEC1CF01FC038F020C039F021C03AF040
:1031C000C00E276E7F0E286E440E296E46C01FF07B
:1031D00047C020F099EC1FF01FC024F020C025F05C
:1031E00021C026F091EC17F024C035F025C036F050
:1031F00026C037F031EC15F035C010F036C011F0B4
:1032000037C012F069EC16F010C046F011C047F05C
:1032100046A001D0BB8A46B001D0BB9ABB9846C03D
:1032200048F047C049F0D89049324832D8904932E6
:1032300048324850BC6E00D012000450D8B401D0BF
:1032400001D008D0015002100310D8A401D001D041
:1032500010D000D0000E016E000E026E000E036E44
:1032600062D061D006D0042AD890033202320132F3
:1032700000D0000E0114066E000E0214076EFE0E42
:103280000314086E065007100810D8A401D001D00E
:10329000EAD70DD00CD0042A010E0126000E02221E
:1032A000000E0322D89003320232013200D0000E09
:1032B0000114066E000E0214076EFF0E0314086E52
:1032C000065007100810D8A401D001D0E4D707D0C9
:1032D00006D00406D89001360236033600D002AE7E
:1032E00001D001D0F6D704B001D001D002D0029EA7
:1032F00000D0D89004320450086E076A066A06505F
:10330000011207500212085003120550D8B401D020
:1033100001D002D0038E00D001C001F002C002F043
:1033200003C003F000D012000001736F000E000113
:103330000001786F000173510001736F8E0E000160
:103340000001776F000173510001000172AF01D0DD
:1033500001D028D000010001721F0001711F00017F
:10336000701F00016F6D000E0001702300017123BA
:10337000000172230001736F010E00010001786FDC
:10338000000173510FD00ED00001D89000017233AC
:10339000000171330001703300016F33000100013F
:1033A000772B00D0000E000100016F150001736F34
:1033B000000E0001000170150001746F000E000185
:1033C000000171150001756FFF0E000100017215FB
:1033D0000001766F00017651731174117511D8A434
:1033E00001D001D0D1D700D06FC060F070C061F0C3
:1033F00071C062F077C063F078C064F00001B7EC90
:1034000013F060C06FF061C070F062C071F000D066
:1034100012000001626F000E00010001656F0001E3
:10342000625134D0000100016551010DF3500001DB
:10343000000160250001626FF4500001000161216C
:103440000001636F62C0F6FF63C0F7FF000EF86E05
:103450000F0EF76403D00800F55005D0F6CFE9FF52
:10346000F7CFEAFFEF500001646F020EF66E000E18
:10347000F76E1A0EF86E64C0F5FF0C000B000E001C
:1034800000010001652BEEEC1FF000D000010001EF
:103490006551010DF3500001000160250001626FCC
:1034A000F4500001000161210001636F62C0F6FF6A
:1034B00063C0F7FF000EF86E0F0EF76403D008002C
:1034C000F55005D0F6CFE9FFF7CFEAFFEF5000093E
:1034D000D8A401D001D0A6D700D01200000E000160
:1034E0000001666F000E0001656F0001000163516D
:1034F0006211D8B401D001D04CD00001646F010E2C
:1035000000010001676F000164510AD00001000151
:103510000001D8906237633700010001672B00D0AB
:103520000001000163AF01D001D0F0D701D000D07D
:10353000000100010001D8906537663700010001E5
:10354000625100010001605D000100016351000152
:1035500000016159D8A001D001D010D000010001B4
:10356000625100010001605F000100016351000130
:103570000001615B00010001658100D000010001D4
:103580000001D8906333623300010001672FD0D768
:1035900000D065C060F066C061F012009EC060F0AF
:1035A0009FC061F0A0C062F00001000E00010001A8
:1035B000646F0001A40E0001636F000128EC1BF092
:1035C00000010001A5AF01D001D00ED0000E000116
:1035D00000019E6F000E000100019F6F000E0001B0
:1035E0000001A06F34D033D0150E00010001A45D9E
:1035F000000E0001A559D8A001D001D007D09EC06F
:103600009EF09FC09FF0A0C0A0F021D09EC08FF080
:103610009FC090F0A0C091F00001FCEC10F08FC0B2
:103620006FF090C070F091C071F092C072F0000124
:1036300094EC19F06FC0A1F070C0A2F071C0A3F0BB
:10364000A1C09EF0A2C09FF0A3C0A0F000D01200C5
:103650007F0E00010001621500016111000160117F
:10366000D8A401D001D00AD063C0D9FF64C0DAFF6A
:10367000000EDE6E000EDD6E42D041D00001000172
:1036800062517F0B0001656FD89000016535000124
:10369000666F0001676B0001673763C0D9FF64C0C4
:1036A000DAFF66C0DEFF67C0DDFF000100016135A3
:1036B000E836010B0001656F0001655163C0D9FF59
:1036C00064C0DAFFDE12000EDD1263C0D9FF64C0F1
:1036D000DAFF820EDE26FF0EDD220001628100018C
:1036E0006283000162850001628700016289000136
:1036F000628B0001629D00010001619F00D01200F9
:10370000000E00010001686F000E0001696F000EDD
:1037100000016A6F000E00016B6F00D00001000114
:1037200060A101D001D019D0000100016451000155
:1037300000016827000100016551000100016923B3
:10374000000100016651000100016A23000100012F
:103750006751000100016B2300D00001D8900001E7
:1037600064370001653700016637000167370001E3
:10377000D89000016333000162330001613300011E
:103780006033000100016351601161116211D8A41E
:1037900001D001D0C3D768C060F069C061F06AC0D1
:1037A00062F06BC063F01200000100016B516A11FE
:1037B000D8B401D001D043D000016C6F010E0001DC
:1037C00000016D6F00016C510AD000010001000181
:1037D000D8906A376B37000100016D2B00D00001D3
:1037E00000016BAF01D001D0F0D701D000D00001B3
:1037F00000016A5100010001685D000100016B5188
:10380000000100016959D8A001D001D00DD00001FC
:1038100000016A5100010001685F000100016B5165
:1038200000010001695B00D0000100010001D89097
:103830006B336A33000100016D2FD9D700D068C007
:1038400068F069C069F01200036E000E066E035046
:1038500029D00650010DF3500124036EF4500220CC
:10386000046E03C0F6FF04C0F7FF000EF86E0F0EE3
:10387000F76403D00800F55005D0F6CFE9FFF7CF85
:10388000EAFFEF50056E020EF66E000EF76E1A0E8E
:10389000F86E05C0F5FF0C000B000E00062AF2ECD6
:1038A0001FF000D00650010DF3500124036EF450B8
:1038B0000220046E03C0F6FF04C0F7FF000EF86E8E
:1038C0000F0EF76403D00800F55005D0F6CFE9FFDE
:1038D000F7CFEAFFEF500009D8A401D001D0B9D743
:1038E00000D01200BCC09EF0BDC09FF0BEC0A0F0D2
:1038F0000001CEEC1AF09EC0A6F09FC0A7F0A0C0B9
:10390000A8F000017AEC1FF0A6C0A9F0A7C0AAF0A9
:10391000A8C0ABF0BCC0ACF0BDC0ADF0BEC0AEF056
:10392000000110EC0DF0A9C0BFF0AAC0C0F0ABC000
:10393000C1F00001000E00010001B86F0001BC0ED3
:103940000001B76FBFC0B9F0C0C0BAF0C1C0BBF0D2
:10395000000157EC1FF0BCC09EF0BDC09FF0BEC080
:10396000A0F00001CEEC1AF09EC0BCF09FC0BDF0EC
:10397000A0C0BEF000D01200236E000E286E2350AF
:10398000236E8E0E276E235022AE01D001D015D0AB
:10399000221E211E201E1F6C000E20222122222208
:1039A000236E010E286E235008D007D0D890223203
:1039B000213220321F32272A00D0000E1F14236E1E
:1039C000000E2014246E000E2114256EFF0E22140A
:1039D000266E2650231024102510D8A401D001D023
:1039E000E5D700D01FC001F020C002F021C003F0D5
:1039F00027C004F028C005F01DEC19F001C01FF02D
:103A000002C020F003C021F000D01200000E00011F
:103A10000001606FC00E0001616FA80E0001626FAF
:103A2000000E0001636F0001F5C06FF00001F6C0E9
:103A300070F00001F7C071F00001F8C072F0020EE2
:103A4000D89000016F37703771377237E82EF8D78A
:103A5000040ED89000016F37703771377237E82E37
:103A6000F8D76FC064F070C065F071C066F072C0C6
:103A700067F00001EEEC11F0000100016005CB6E73
:103A8000BB86BB84CA80CA92CA8494941200000E7A
:103A9000076E000E066E0750800A800F0E0ED8B417
:103AA000065CD8A001D001D003D030D02FD000D0F8
:103AB000ACA201D001D0FCD700D002C004F003C0FA
:103AC00005F0065004260750052204C0F6FF05C085
:103AD000F7FF000EF86E0F0EF76403D00800F550E4
:103AE00005D0F6CFE9FFF7CFEAFFEF50016EDAEC31
:103AF0001FF0064A072A0750800A800F0E0ED8B41E
:103B0000065CD8A001D001D0D3D700D012000001AC
:103B10006B6F000E000100016C6F00016B51000122
:103B2000000169AF01D001D010D000010001686D23
:103B30000001691FD8B0692B00016B6F010E0001F5
:103B400000016C6F00016B5100D00001000168C0E2
:103B500060F00001000169C061F000010001626BCA
:103B600000016B6F8E0E00010001636F00016B514D
:103B70006CC064F00001B7EC13F060C068F061C085
:103B800069F062C06AF000D012003DEC1EF006EC55
:103B90001DF0E9EC1FF0C0EC1FF07DEC14F0D58EA9
:103BA000CD80010ED66E100E00010001616F5B0E1C
:103BB0000001606F000109EC1AF00001736F000E44
:103BC00000010001746F00017351C70E0001000174
:103BD000746501D001D002D014D013D0240E00019E
:103BE000736FE70EE82EFED7732FFCD7000100019C
:103BF000742BC70E00010001746501D001D0EED70F
:103C000000D01200000100016605D8A401D001D047
:103C10000ED0000EF66E000EF76E1A0EF86E000152
:103C2000000167510F0B8009F56E0C000ED0000EDD
:103C3000F66E000EF76E1A0EF86E00010001675165
:103C40000F0BC009F56E0C0000D0480E00016A6F22
:103C5000CF0EE82EFED76A2FFCD768C060F069C08F
:103C600061F0000109EC1AF0480E00016A6FCF0EF6
:103C7000E82EFED76A2FFCD71200D00EF26EA00EEF
:103C80000F010F01266F000E0F010F01256F000EAF
:103C90000F010F01246F000E0F010F01236F000EA3
:103CA000946E000E956E99689868010E8C6E949CC7
:103CB000948EAC98AC9CAC8AAB9CAB88AB8E9D8A46
:103CC0006596AC94110EAF6E9288000E936E680EDE
:103CD000D56E000ED66EB40E0001606F870EE82E12
:103CE000FED7602FFCD71200000E00010001656FA7
:103CF000000E0001646F00D00001000160A101D03E
:103D000001D00DD0000100016251000100016427C3
:103D100000010001635100010001652300D0000192
:103D200000010001D89062376337000100010001F3
:103D3000D890613360330001000161516011D8A453
:103D400001D001D0D9D764C060F065C061F0120025
:103D500001EE01F0B10EEE6AE806FDE100EECCF0F6
:103D60001A0EEE6AE806FDE15E6A5D6A5C6AEC0EB8
:103D7000F66E3F0EF76E000EF86E01EEB2F010EE2A
:103D800005F00900F5CFEEFFE550E150FAE19C0E99
:103D9000F66E3F0EF76E000EF86E00EEE6F010EED7
:103DA00017F00900F5CFEEFFE550E150FAE1000110
:103DB000E2EF1FF00704D8A401D001D00CD0000E10
:103DC000F66E000EF76E1A0EF86E08500F0B800993
:103DD000F56E0C000CD0000EF66E000EF76E1A0E8B
:103DE000F86E08500F0BC009F56E0C0000D0480E9D
:103DF0000B6ECF0EE82EFED70B2EFCD709C001F0BC
:103E00000AC002F024EC1CF0480E0B6ECF0EE82E18
:103E1000FED70B2EFCD712000001000168C060F035
:103E20000001000169C061F000010001626B000146
:103E30006B6F8E0E00010001636F00016B5100017A
:103E40006C6F000E00010001646F00016C510001F5
:103E5000B7EC13F060C068F061C069F062C06AF04E
:103E600000D012000001616F000E00010001626FBE
:103E7000000161513A0E00010001606101D001D0E2
:103E800010D02F0E00010001606501D001D009D0D3
:103E90000001616F010E00010001626F00016151BC
:103EA00000D062C061F00001613100D01200B7C0E3
:103EB000D9FFB8C0DAFF0001DECFA9F00001DECFE4
:103EC000AAF00001DDCFABF0B9C0ACF0BAC0ADF0E4
:103ED000BBC0AEF0000110EC0DF0B7C0D9FFB8C008
:103EE000DAFFA9C0DEFFAAC0DEFFABC0DDFFDD52F6
:103EF00000D012007F0E00010001A8150001A711DB
:103F00000001A611D8B401D001D00CD0000E0001E0
:103F10000001A61B000E00010001A71B800E00017E
:103F20000001A81BA6C0A6F0A7C0A7F0A8C0A8F0D3
:103F300012001FC001F020C002F0036A226E8E0E34
:103F4000046E2250236E000E056E23501DEC19F0F6
:103F500001C01FF002C020F003C021F000D0120009
:103F6000016E000E026E0150000EF66E000EF76E2E
:103F7000180EF86E0800F5500F0B026E00D01200FC
:103F8000790EF16EC90EF26EF288F28EF292D08E38
:103F90009D8C9F8C9E9C490EF06E1200303030300C
:103FA0000030303030003030303000E02E00003053
:103FB0003030000000D0ACA201D001D0FCD701C04D
:103FC000ADFF1200C5EC1DF043EC08F0FDD726EF65
:103FD00001F0690ECD6EF28CF28E12002E0EE82EDC
:103FE000FED712002E0EE82EFED7120030303030F1
:023FF0000000CF
:020000040020DA
:08000000FFFFFFFFFFFFFFFF00
:020000040030CA
:0E0000001D036100018B81FFFFC0FFE0FF4088
:00000001FF
