:0400000047EF00F0D6
:10000800FACF01F0FBCF02F0E9CF03F0EACF04F01A
:10001800E1CF05F0E2CF06F0D9CF07F0DACF08F04C
:10002800F3CF09F0F4CF0AF0F6CF0BF0F7CF0CF0CE
:10003800F8CF0DF0F5CF0EF0F2A201D001D006D026
:1000480006EC19F0F29202D001D000D00EC0F5FFF4
:100058000DC0F8FF0CC0F7FF0BC0F6FF0AC0F4FF95
:1000680009C0F3FF08C0DAFF07C0D9FF06C0E2FFE6
:1000780005C0E1FF04C0EAFF03C0E9FF02C0FBFFBF
:0A00880001C0FAFF110070EF17F03D
:101000001F1C1F1E1F1E1F1F1E1F1E1F01000A0068
:101010006400E80310274A616E4665624D617241C3
:1010200070724D61794A756E4A756C41756753658A
:10103000704F63744E6F764465630053756E4D6FE9
:101040006E5475655765645468754672695361746A
:1010500000436F6465204F4B006C6F6F70206F6BA7
:1010600000496E6974206F6B00506F7461723A00B2
:10107000436F64653A00436C61763A0025336448F7
:101080007A002533640020002F00250000009EA078
:1010900001D001D020D000010001864B872B000138
:1010A00000018651020A8711D8A401D001D011D0C5
:1010B0008C720001D6CF80F000010001816B000E20
:1010C000D66E000E00010001876F000E0001866FD2
:1010D00000D09E9000D00001000E2A6E00019D0EEF
:1010E000296E100E2C6E7C0E2B6E80C02DF081C0F0
:1010F0002EF07EEC0DF0000E2F6E010E2E6E56ECD3
:1011000012F087A801D001D01DD3000150B001D04A
:1011100001D013D0000EF66E000EF76E1A0EF86EA8
:10112000010EF56E0C0000015080000E0001000160
:10113000856F000E0001846F00D000010001855111
:101140008411D8A401D001D0AED0000EF66E000EEE
:10115000F76E1A0EF86EC00EF56E0C000001D66F19
:10116000020E156E0001D6510001D76F000E166EEB
:101170000001D751100E186E700E176E45EC18F066
:10118000480E0001D66FCF0EE82EFED7D62FFCD723
:101190000001D66F020E156E0001D6510001D76F07
:1011A000050E166E0001D7510001000E186E0001E9
:1011B000FA0E176E45EC18F0480E0001D66FCF0EF0
:1011C000E82EFED7D62FFCD700010001FA5100010E
:1011D0000001F26301D001D066D000010001FB5193
:1011E000000120EEF3F0DF6201D001D05CD00001FD
:1011F0000001FC51000120EEF4F0DF6201D001D0CB
:1012000052D000010001FD51000120EEF5F0DF6237
:1012100001D001D048D0000E00010001856F010E01
:101220000001846F0001D66F020E156E0001D651C9
:101230000001D76F090E166E0001D751100E186EFF
:10124000510E176E45EC18F00001D66F000E00012C
:101250000001E06F0001D651C70E00010001E065FA
:1012600001D001D002D014D013D0240E0001D66FCB
:10127000E70EE82EFED7D62FFCD700010001E02BA9
:10128000C70E00010001E06501D001D0EED700D00B
:10129000000EF66E000EF76E1A0EF86E010EF56E69
:1012A0000C0001D000D00001000184058511D8A4F4
:1012B00001D001D087D082C0B2F083C0B3F000016A
:1012C00080EC13F0BFEC0FF040C082F041C083F01F
:1012D00082C0B2F083C0B3F0000180EC13F00001D3
:1012E000D66F020E156E0001D6510001D76F000EA9
:1012F000166E0001D751100E186E690E176E45EC70
:1013000018F0480E0001D66FCF0EE82EFED7D62F6C
:10131000FCD70001D66F020E156E0001D6510001F8
:10132000D76F060E166E0001D7510101010E186E1F
:101330000101010E176E45EC18F0480E0001D66F42
:10134000CF0EE82EFED7D62FFCD70001D66F020EA7
:10135000156E0001D6510001D76F090E166E0001FF
:10136000D751100E186E8A0E176E45EC18F0480E05
:101370000001D66FCF0EE82EFED7D62FFCD7000186
:10138000D66F020E156E0001D6510001D76F0B0EFD
:10139000166E0001D7510001000E186E00019D0E5F
:1013A000176E45EC18F0480E0001D66FCF0EE82EF0
:1013B000FED7D62FFCD7000E2F6E020E2E6E56ECE7
:1013C00012F000D087B801D001D0BCD1000150A0EC
:1013D00001D001D013D0000EF66E000EF76E1A0E7B
:1013E000F86E010EF56E0C0000015090000E000129
:1013F0000001856F000E0001846F00D00001000124
:1014000085518411D8A401D001D0A5D00001D66F98
:10141000020E156E0001D6510001D76F000E166E38
:101420000001D751100E186E700E176E45EC18F0B3
:10143000480E0001D66FCF0EE82EFED7D62FFCD770
:101440000001D66F020E156E0001D6510001D76F54
:10145000050E166E0001D7510001000E186E000136
:10146000FA0E176E45EC18F0480E0001D66FCF0E3D
:10147000E82EFED7D62FFCD700010001FA5100015B
:101480000001F26301D001D066D000010001FB51E0
:10149000000120EEF3F0DF6201D001D05CD000014A
:1014A0000001FC51000120EEF4F0DF6201D001D018
:1014B00052D000010001FD51000120EEF5F0DF6285
:1014C00001D001D048D0000E00010001856F010E4F
:1014D0000001846F0001D66F020E156E0001D65117
:1014E0000001D76F090E166E0001D751100E186E4D
:1014F000510E176E45EC18F00001D66F000E00017A
:101500000001E16F0001D651C70E00010001E16545
:1015100001D001D002D014D013D0240E0001D66F18
:10152000E70EE82EFED7D62FFCD700010001E12BF5
:10153000C70E00010001E16501D001D0EED700D057
:10154000000EF66E000EF76E1A0EF86E010EF56EB6
:101550000C0001D000D00001000184058511D8A441
:1015600001D001D0EFD0000E126E640E116ED00EBD
:1015700000010001FA250F6E106AFF0E1022BBEC6D
:1015800019F000010001FC510F240001D66F000E7C
:1015900010200001D76F000E126E0A0E116ED00ED1
:1015A00000010001FB250F6E106AFF0E1022BBEC3C
:1015B00019F00F500001D6250001D86F105000011E
:1015C000D7210001D96FD00E0001D825176EFF0E6C
:1015D0000001D921186E2EEC19F017C02DF018C09B
:1015E0002EF019C02FF0AE0E306E230E316E410E6C
:1015F000326E1BEC11F02DC0DAF02EC0DBF02FC0E4
:10160000DCF0DAC0D0F0DBC0D1F0DCC0D2F00001F9
:101610009CEC16F0D0C0DDF0D1C0DEF0D2C0DFF01F
:10162000DDC03EF0DEC03FF0DFC040F0EFEC0EF07A
:101630003EC07EF03FC07FF0480E0001D66FCF0E57
:10164000E82EFED7D62FFCD70001D66F020E156EFE
:101650000001D6510001D76F000E166E0001D75160
:10166000100E186E760E176E45EC18F0480E00013D
:10167000D66FCF0EE82EFED7D62FFCD70001000183
:101680008A510F0AD8B401D001D015D00001D66F0D
:10169000020E156E0001D6510001D76F050E166EB1
:1016A0000001D7510001000E186E0001FA0E176EEE
:1016B00045EC18F000D0480E0001D66FCF0EE82E92
:1016C000FED7D62FFCD7100E106E8A0E0F6E00ECD0
:1016D00016F0480E0001D66FCF0EE82EFED7D62F9B
:1016E000FCD70001D66F020E156E0001D651000125
:1016F000D76F0B0E166E0001D7510001000E186E49
:1017000000019D0E176E45EC18F07EC0B2F07FC050
:10171000B3F0000180EC13F086B601D001D005D003
:10172000000100017E4B7F2B00D086B801D001D094
:1017300009D0000100017E07D8A07F0703D002D0A6
:1017400001D000D012000F0E0001C36F0001BDC018
:10175000C4F00001BEC0C5F00001BFC0C6F000016A
:10176000C3290001C76F05D00001D890C633C53327
:10177000C4330001C72FF8D70001C4510001000194
:10178000CA6F0F0E0001C36F0001C0C0C4F000019A
:10179000C1C0C5F00001C2C0C6F00001C3290001EC
:1017A000C76F05D00001D890C633C533C4330001DC
:1017B000C72FF8D70001C45100010001C96F000113
:1017C0000001CA51D8B401D001D019D000010001E4
:1017D000C95100010001CA6101D001D017D0000138
:1017E0000001CA51000800010001C9250001C36FB2
:1017F000190E0001C35DD8A001D001D007D0C0C030
:10180000BDF0C1C0BEF0C2C0BFF077D10001000181
:10181000C951D8B401D001D019D000010001CA517A
:1018200000010001C96101D001D017D00001000101
:10183000C951000800010001CA250001C36F190E3B
:101840000001C35DD8A001D001D007D0BDC0BDF05C
:10185000BEC0BEF0BFC0BFF050D10001C36F060EC6
:1018600000010001C86F0001C35100010001BFAFBA
:1018700001D001D004D000010001C88F00D00001C8
:101880000001C2AF01D001D003D000010001C88D1A
:1018900000010001BE8FFF0E00010001BD17FF0E09
:1018A00000010001BE17000E00010001BF1700017A
:1018B0000001C18FFF0E00010001C017FF0E0001E3
:1018C0000001C117000E00010001C2170001000154
:1018D000C95100010001CA6101D001D03AD000D045
:1018E0000001D8900001C0370001C1370001C237A4
:1018F00000010001C90700010001C95100010001F8
:10190000CA19D8B401D001D019D000010001C8070C
:101910000001C851070BD8A401D001D0E1D70ED0E7
:101920000DD00CD00001D8900001BF330001BE33B0
:101930000001BD3300010001CA2B00D000010001ED
:10194000C95100010001CA6301D001D0EBD744D0D6
:1019500043D000010001CA5100010001C96101D05A
:1019600001D03AD000D00001D8900001BD3700016D
:10197000BE370001BF3700010001CA0700010001A6
:10198000C95100010001CA19D8B401D001D019D041
:1019900000010001C8070001C851070BD8A401D0FD
:1019A00001D0E1D70ED00DD00CD00001D8900001AD
:1019B000C2330001C1330001C03300010001C92B53
:1019C00000D000010001C95100010001CA6301D02B
:1019D00001D0EBD701D000D000010001C8AF01D089
:1019E00001D018D0FF0E00010001BD1BFF0E000149
:1019F0000001BE1BFF0E00010001BF1B010E000114
:101A00000001BD27000E00010001BE23000E0001F1
:101A10000001BF2300010001C8AD01D001D019D0E1
:101A2000FF0E00010001C01BFF0E00010001C11BE1
:101A3000FF0E00010001C21B010E00010001C027C2
:101A4000000E00010001C123000E00010001C223AD
:101A500000D00001C36F000E00010001C86F00013B
:101A6000C35100010001BD5100010001C027000168
:101A70000001BE5100010001C12300010001BF515E
:101A800000010001C22300010001C2AF01D001D05A
:101A900021D0FF0E00010001C01BFF0E000100015C
:101AA000C11BFF0E00010001C21B010E000100015D
:101AB000C027000E00010001C123000E000100013B
:101AC000C2230001C36F010E00010001C86F0001B5
:101AD000C35100D0C0C00FF0C1C010F0C2C011F09F
:101AE000CAC012F0C8C013F086EC14F00FC0BDF0ED
:101AF00010C0BEF011C0BFF000D01200000E356E55
:101B00002D0E346E4FD13F50250AD8B401D001D0EC
:101B100009D029C0D9FF2AC0DAFF3FC0DFFF294A18
:101B20002A2A40D1000E3E6E000E3D6E316E000E30
:101B3000376E31502BC0F6FF2CC0F7FF000EF86E49
:101B40000800F5CF0FF0DAEC19F0D8A001D001D0E1
:101B50003FD0000E3E6E000E3D6E00D03DC00FF037
:101B60003EC010F0000E126E0A0E116EBBEC19F0A2
:101B70000FC03DF010C03EF02BC0F6FF2CC0F7FFA9
:101B8000000EF86E0800F5CF31F0D00E3124326E21
:101B9000336AFF0E332232503D2633503E222B4A09
:101BA0002C2A2BC0F6FF2CC0F7FF000EF86E0800A1
:101BB000F5CF0FF0DAEC19F0D8B001D001D0CED7C4
:101BC00007D006D005D003D11DD01CD0EBD01AD041
:101BD0002B50316E2C50326E2B4A2C2A31C0F6FF1E
:101BE00032C0F7FF000EF86E0800F5CF3FF03F500F
:101BF000000AD8B4ECD0640AD8B404D00D0AD8B422
:101C000001D0D0D034C0D9FF35C0DAFFDECF38F0F4
:101C1000DDCF39F0020E3426000E352239AE01D068
:101C200001D007D0030E3712386C391ED8B0392ACC
:101C300000D0316E010E3F6E31503F50050AD8A4DE
:101C400001D001D002D024D023D03F50020D0C0E81
:101C5000F324F66E100EF420F76EF86A000EF822E8
:101C60000900F5CF31F00900F5CF32F03150385C82
:101C700032503958D8B001D001D002D009D008D0A4
:101C80003F2A3F50050AD8A401D001D0DED700D0AA
:101C90003E503D10D8B401D001D00AD03750030BCC
:101CA000D8B401D001D004D03D06D8A03E0600D063
:101CB000800E3FBE7F0E316E3D503F5C3E50800A2D
:101CC0003158D8B001D001D007D03F503D5E000E52
:101CD0003FBEFF0E3E5A05D0000E3E6E000E3D6E1A
:101CE00000D03E503D10D8B401D001D014D000D067
:101CF00029C0D9FF2AC0DAFF200EDF6E294A2A2A1E
:101D00003D06D8A03E063E503D10D8A401D001D0DB
:101D1000EFD701D000D03750030BD8B401D001D099
:101D200009D029C0D9FF2AC0DAFF2D0EDF6E294A5B
:101D30002A2A00D03FC036F02DD03650020D0C0EAE
:101D4000F324F66E100EF420F76EF86A000EF822F7
:101D50000900F5CF11F00A00F5CF12F038C00FF0EE
:101D600039C010F0DCEC17F00FC017F010C018F0FD
:101D7000000E1A6E0A0E196ED8EC18F01750300FBC
:101D80003F6E29C0D9FF2AC0DAFF3FC0DFFF294AD2
:101D90002A2A00D036063628D8A401D001D0CDD7C3
:101DA00001D000D02B50316E2C50326E2B4A2C2A91
:101DB00031C0F6FF32C0F7FF000EF86E0800F5CF15
:101DC0003FF03F6601D001D09ED601D000D029C09F
:101DD000D9FF2AC0DAFF000EDF6E00D012000F0E0E
:101DE0000001A76F3EC0A8F03FC0A9F040C0AAF014
:101DF0000001A7290001AB6F05D00001D890AA33DC
:101E0000A933A8330001AB2FF8D70001A851000176
:101E10000001B16F0001B16701D001D00AD0000EFE
:101E20003E6E000E3F6E000E406E000E416EA6D05C
:101E3000A5D0170E0001A76F3EC0A8F03FC0A9F0C3
:101E400040C0AAF00001A7290001AB6F05D0000136
:101E5000D890AA33A933A8330001AB2FF8D70001DB
:101E6000A85100010001AC6F3F8EFF0E3E16FF0E21
:101E70003F16000E40163E5000010001AD6F3F506E
:101E80000001AE6F40500001AF6F0001B06B8E0ECD
:101E900000010001B15F00010001B1AF01D001D02C
:101EA00024D000010001B151800A8F0FD8B001D0B9
:101EB00001D00BD0000E3E6E000E3F6E000E406E45
:101EC000000E416E5BD05AD000D00001D8900001C6
:101ED000B0330001AF330001AE330001AD33000178
:101EE0000001B13FF2D729D028D0170E0001000120
:101EF000B16501D001D019D0000E3E6E000E3F6ECC
:101F0000000E406E000E416E39D038D00ED0000168
:101F1000D8900001AD370001AE370001AF370001A6
:101F2000B03700010001B10700D000010001B16726
:101F300001D001D0ECD701D000D000010001AC519C
:101F4000D8B401D001D011D000010001B01F0001B0
:101F5000AF1F0001AE1F0001AD6D000E0001AE23EA
:101F60000001AF230001B02300D0ADC03EF0AEC0F1
:101F70003FF0AFC040F0B0C041F000D01200C282CC
:101F800000D0C2B201D001D0FCD700D0340EC35C67
:101F90000B0EC458D8A001D001D002D08F8002D03F
:101FA0008F9000D00001C3CFA7F00001C4CFA8F0EC
:101FB00000010001A96B0001AA6BFF0E136E030E56
:101FC000146E000E156E000E166EA7C00FF0A8C09E
:101FD00010F0A9C011F0AAC012F077EC18F00FC0F1
:101FE0001BF010C01CF011C01DF012C01EF0FF0E3F
:101FF0001F6E0F0E206E000E216E000E226E4EEC34
:1020000016F01BC0ADF01CC0AEF01DC0AFF01EC07E
:10201000B0F0640E136E000E146E000E156E000EFE
:10202000166EADC00FF0AEC010F0AFC011F0B0C072
:1020300012F077EC18F00FC01BF010C01CF011C0AC
:102040001DF012C01EF0FF0E1F6E030E206E000E5C
:10205000216E000E226E4EEC16F01BC0ABF01CC0C1
:10206000ACF0ABC048F00101010E2A6E0101010E77
:10207000296E100E2C6E820E2B6E640E136E000EE7
:10208000146E000E156E000E166EADC00FF0AEC0D1
:1020900010F0AFC011F0B0C012F077EC18F00FC024
:1020A0001BF010C01CF011C01DF012C01EF0FF0E7E
:1020B0001F6E030E206E000E216E000E226E4EEC7F
:1020C00016F01BC02DF01CC02EF01DC02FF01EC03E
:1020D00030F07EEC0DF0ADC040F0AEC041F000D06D
:1020E0001200200E0F010F01266F9280010E0F01CA
:1020F0000F01256F000E0F010F01246F000E0F015D
:102100000F01236F000EC26E000EC16E800EC06EF6
:10211000010EC26E98908F90B40E0F6E870EE82E4F
:10212000FED70F2EFCD7B40E0F6E870EE82EFED70B
:102130000F2EFCD7000EF66E000EF76E1A0EF86E1C
:10214000330EF56E0C00B40E0F6E870EE82EFED720
:102150000F2EFCD7000EF66E000EF76E1A0EF86EFC
:10216000330EF56E0C00B40E0F6E870EE82EFED700
:102170000F2EFCD7000EF66E000EF76E1A0EF86EDC
:10218000330EF56E0C00B40E0F6E870EE82EFED7E0
:102190000F2EFCD7000EF66E000EF76E1A0EF86EBC
:1021A000380EF56E0C00B40E0F6E870EE82EFED7BB
:1021B0000F2EFCD7000EF66E000EF76E1A0EF86E9C
:1021C0000C0EF56E0C00B40E0F6E870EE82EFED7C7
:1021D0000F2EFCD7000EF66E000EF76E1A0EF86E7C
:1021E000060EF56E0C00B40E0F6E870EE82EFED7AD
:1021F0000F2EFCD7000EF66E000EF76E1A0EF86E5C
:10220000010EF56E0C00B40E0F6E870EE82EFED791
:102210000F2EFCD7000EF66E000EF76E1A0EF86E3B
:10222000800EF56E0C00B40E0F6E870EE82EFED7F2
:102230000F2EFCD712000F0E336E2DC034F02EC0BF
:1022400035F02FC036F03328376E04D0D8903632B0
:1022500035323432372EFAD73450386E386601D0E2
:1022600001D008D0000E2D6E000E2E6E000E2F6EC7
:1022700080D07FD00F0E336E30C034F031C035F0D7
:1022800032C036F03328376E04D0D890363235322B
:102290003432372EFAD734503D6E3D6601D001D02E
:1022A00008D0000E2D6E000E2E6E000E2F6E61D027
:1022B00060D03D507B0F38262FC03DF032503D1A84
:1022C000800E3D162E8E318EFF0E3016FF0E31160B
:1022D000000E3216000E396E000E3A6E000E3B6E86
:1022E000336E070E3C6E335000D02DA001D001D0CC
:1022F00007D03050392631503A2232503B2200D09C
:10230000D8902F322E322D32D890303631363236A8
:102310003C2EEBD700D0336E090E3C6E335000D00C
:102320002DA001D001D007D03050392631503A22AB
:1023300032503B2200D0D8902F322E322D32D890FE
:102340003B323A3239323C2EEBD700D039C00FF055
:102350003AC010F03BC011F038C012F03DC013F08D
:1023600086EC14F00FC02DF010C02EF011C02FF02D
:1023700000D012000F010F015FA901D001D003D0DE
:10238000000E93D092D0550E7E6EAA0E7E6E0F0177
:102390000F015F8B030E0F010F015F135CCF17F06E
:1023A0005DCF16F017C00FF02EEC1AF0146E156A00
:1023B00020EE0AF01250D9261350DA2214C0DEFFA4
:1023C00015C0DDFF5CCF17F05DCF16F016C00FF023
:1023D0002EEC1AF0146E156A20EE08F01250D92671
:1023E0001350DA2214C0DEFF15C0DDFF17C00FF056
:1023F0002EEC1AF0146E156A20EE06F01250D92653
:102400001350DA2214C0DEFF15C0DDFF5CCF17F0D9
:102410005DCF16F016C00FF02EEC1AF0146E156A90
:1024200020EE0CF01250D9261350DA2214C0DEFF31
:1024300015C0DDFF17C00FF02EEC1AF0146E156AF0
:1024400020EE04F01250D9261350DA2214C0DEFF19
:1024500015C0DDFF5CCF17F05DCF16F016C00FF092
:102460002EEC1AF0146E156A20EE02F01250D926E6
:102470001350DA2214C0DEFF15C0DDFF17C00FF0C5
:102480002EEC1AF0146E156A12C0D9FF13C0DAFFD1
:1024900014C0DEFF15C0DDFF550E7E6EAA0E7E6EE7
:1024A0000F010F015F9B010E00D012000001000E12
:1024B000136E00018B0E126EBAEC11F00009D8A455
:1024C00001D001D08DD0000E276E310E266E91C046
:1024D00028F092C029F0000E2B6E0A0E2A6E54ECE2
:1024E00019F02EC015F0306E000E166E3050000E32
:1024F000186E310E176E45EC18F02EC015F0306EC8
:10250000020E166E3050100E186E880E176E45ECC7
:1025100018F0000E276E310E266E93C028F094C07E
:1025200029F0000E2B6E0A0E2A6E54EC19F02EC004
:1025300015F0306E030E166E3050000E186E310E10
:10254000176E45EC18F02EC015F0306E050E166EA5
:102550003050100E186E860E176E45EC18F0000EF7
:10256000276E310E266E8FC028F090C029F0000E25
:102570002B6E0A0E2A6E54EC19F02EC015F0306E38
:10258000060E166E3050000E186E310E176E45ECAA
:1025900018F02EC015F0306E080E166E3050100E6A
:1025A000186E740E176E45EC18F0000E276E310E83
:1025B000266E8DC028F08EC029F0000E2B6E0A0EFC
:1025C0002A6E54EC19F02EC015F0306E090E166EFE
:1025D0003050000E186E310E176E45EC18F000D01A
:1025E00012000F0E226E1CC023F01DC024F01EC06E
:1025F00025F02228266E04D0D890253224322332AA
:10260000262EFAD723502B6E2B6601D001D008D08E
:10261000000E1C6E000E1D6E000E1E6E70D06FD070
:102620000F0E226E1FC023F020C024F021C025F021
:102630002228266E04D0D890253224322332262E2A
:10264000FAD723502C6E2C6601D001D008D0000E92
:102650001C6E000E1D6E000E1E6E51D050D0000E6E
:10266000286E000E296E000E2A6E2C50890F2B5EEC
:102670001EC02CF021502C1A800E2C161D8EFF0E21
:102680001C16FF0E1D16000E1E16208EFF0E1F16A6
:10269000FF0E2016000E2116226E180E276E2250F5
:1026A000D890283629362A361F501C5C20501D58D9
:1026B00021501E58D8A001D001D007D01F501C5E59
:1026C00020501D5A21501E5A2880D8901C361D3685
:1026D0001E36272EE5D700D028C00FF029C010F0F5
:1026E0002AC011F02BC012F02CC013F086EC14F0AD
:1026F0000FC01CF010C01DF011C01EF000D0120061
:10270000FF0E00010001B25D030E0001B359D8B005
:1027100001D001D078D04CC0B4F04DC0B5F04EC05F
:10272000B6F04FC0B7F0040ED8900001B437B537FB
:10273000B637B737E82EF8D7B4C013F0B5C014F0E9
:10274000B6C015F0B7C016F0000E0F6EC00E106EBA
:10275000A80E116E000E126E04EC14F00FC01EF0E5
:1027600010C01FF011C020F012C021F0E6EC16F0EE
:102770001EC030F01FC031F020C032F0C00E1F6EFE
:102780007F0E206E440E216EB2C017F0B3C018F059
:1027900009EC1AF017C01CF018C01DF019C01EF08B
:1027A000F1EC12F01CC02DF01DC02EF01EC02FF059
:1027B0001BEC11F02DC03EF02EC03FF02FC040F0BA
:1027C000EFEC0EF03EC0B2F03FC0B3F000010001EC
:1027D000B2A101D0BB8A00010001B2B101D0BB9A05
:1027E000BB980001B2C0B4F00001B3C0B5F0000165
:1027F000D890B533B4330001D890B533B433000169
:10280000B451BC6E00D01200176E000E196E175036
:1028100016AE01D001D00DD0161E151E141E136C5D
:10282000000E142215221622176E010E196E175073
:1028300000D012AE01D001D00BD0121E111E101EFE
:102840000F6C000E102211221222010E191A00D054
:10285000000E1A6E000E1B6E000E1C6E000E1D6E1A
:102860001650131014101510D8B401D001D036D062
:10287000176E010E186E175007D0D8901336143605
:1028800015361636182A00D016AE01D001D0F5D76D
:1028900001D000D0D8901A361B361C361D36135086
:1028A0000F5C145010581550115816501258D8A0DB
:1028B00001D001D00AD013500F5E1450105A155099
:1028C000115A1650125A1A8000D0D890163215326A
:1028D00014321332182EDED701D000D01950D8B4DC
:1028E00001D001D009D01D1E1C1E1B1E1A6C000E2B
:1028F0001B221C221D2200D01AC00FF01BC010F09A
:102900001CC011F01DC012F000D012001250D8B43B
:1029100001D001D008D00F5010101110D8A401D050
:1029200001D010D000D0000E0F6E000E106E000E01
:10293000116E62D061D006D0122AD89011321032B6
:102940000F3200D0000E0F14146E000E1014156E0E
:10295000FE0E1114166E145015101610D8A401D0C6
:1029600001D0EAD70DD00CD0122A010E0F26000E8E
:102970001022000E1122D890113210320F3200D0E6
:10298000000E0F14146E000E1014156EFF0E1114AD
:10299000166E145015101610D8A401D001D0E4D72B
:1029A00007D006D01206D8900F361036113600D058
:1029B00010AE01D001D0F6D712B001D001D002D0B4
:1029C000109E00D0D89012321250166E156A146AFA
:1029D00014500F1215501012165011121350D8B473
:1029E00001D001D002D0118E00D00FC00FF010C066
:1029F00010F011C011F000D012001FC023F020C051
:102A000024F000D023C00FF024C010F021C011F03A
:102A100022C012F0DCEC17F00FC023F010C024F03D
:102A20001D4A1E2A24502310D8A401D001D0EAD771
:102A300000D01DC0D9FF1EC0DAFF000EDF6E1D06DC
:102A4000D8A01E0600D01FC017F020C018F021C06B
:102A500019F022C01AF0D8EC18F01750256E1FC0DC
:102A60000FF020C010F021C011F022C012F0DCECF9
:102A700017F00FC01FF010C020F0090E256401D020
:102A800001D002D0070E2526300E25261DC0D9FF05
:102A90001EC0DAFF25C0DFFF1D06D8A01E0620508D
:102AA0001F10D8A401D001D0CED700D01200550EEF
:102AB0007E6EAA0E7E6E0F010F015F8B0F010F015C
:102AC0005F9F4DEC1AF00009D8A401D001D029D0A5
:102AD000030E0F010F015F13180E0F010F015C6F42
:102AE000000E0F010F015D6F170E0F010F015C6FDC
:102AF000120E0F010F015D6F160E0F010F015C6FBB
:102B0000010E0F010F015D6F320E0F010F015C6F9F
:102B1000430E0F010F015D6F0F6E010E4B6E0F50D4
:102B200000D0010E0F010F01536F000E0F010F01B6
:102B3000536F000E0F010F015E6F000E0F010F01AA
:102B40005A6F0F010F015F8F550E7E6EAA0E7E6EBB
:102B50000F010F015F9B1200B2C00FF0B3C010F065
:102B6000B4C011F00001000E136E0001B80E126E19
:102B700030EC17F000010001B9AF01D001D00ED048
:102B8000000E00010001B26F000E00010001B36FE2
:102B9000000E00010001B46F32D031D0150E0001DB
:102BA0000001B85D000E0001B959D8A001D001D0D4
:102BB00007D0B2C0B2F0B3C0B3F0B4C0B4F01FD00D
:102BC000B2C03EF0B3C03FF0B4C040F0EFEC0EF046
:102BD0003EC01EF03FC01FF040C020F041C021F0B9
:102BE000E6EC16F01EC0B5F01FC0B6F020C0B7F07E
:102BF000B5C0B2F0B6C0B3F0B7C0B4F000D01200A8
:102C0000116E000E146E115029D01450010DF350A6
:102C10000F24116EF4501020126E11C0F6FF12C076
:102C2000F7FF000EF86E0F0EF76403D00800F550A2
:102C300005D0F6CFE9FFF7CFEAFFEF50136E020E93
:102C4000F66E000EF76E1A0EF86E13C0F5FF0C004C
:102C50000B000E00142A49EC1AF000D01450010D9C
:102C6000F3500F24116EF4501020126E11C0F6FFB5
:102C700012C0F7FF000EF86E0F0EF76403D00800C5
:102C8000F55005D0F6CFE9FFF7CFEAFFEF50000986
:102C9000D8A401D001D0B9D700D01200000E246E04
:102CA000000E256E000E266E000E276E22501F109D
:102CB00020102110D8B401D001D035D0236E010EE0
:102CC000286E235007D0D8901F3620362136223662
:102CD000282A00D022AE01D001D0F5D701D000D0F3
:102CE000D89024362536263627361F501B5C2050B8
:102CF0001C5821501D5822501E58D8A001D001D078
:102D00000AD01F501B5E20501C5A21501D5A2250C1
:102D10001E5A248000D0D8902232213220321F3215
:102D2000282EDED700D024C01BF025C01CF026C002
:102D30001DF027C01EF01200D0C0B2F0D1C0B3F019
:102D4000D2C0B4F00001ACEC15F0B2C0BAF0B3C020
:102D5000BBF0B4C0BCF000019CEC19F0BAC0BDF0EF
:102D6000BBC0BEF0BCC0BFF0D0C0C0F0D1C0C1F08D
:102D7000D2C0C2F00001A3EC0BF0BDC0D3F0BEC0C6
:102D8000D4F0BFC0D5F00001000E00010001CC6FEF
:102D90000001D00E0001CB6FD3C0CDF0D4C0CEF077
:102DA000D5C0CFF0000179EC19F0D0C0B2F0D1C09D
:102DB000B3F0D2C0B4F00001ACEC15F0B2C0D0F06A
:102DC000B3C0D1F0B4C0D2F000D01200226E000E19
:102DD000276E2250226E8E0E266E225021AE01D01A
:102DE00001D015D0211E201E1F1E1E6C000E1F229A
:102DF00020222122226E010E276E225008D007D0F9
:102E0000D890213220321F321E32262A00D0000EE6
:102E10001E14226E000E1F14236E000E2014246E4A
:102E2000FF0E2114256E2550221023102410D8A443
:102E300001D001D0E5D700D01EC00FF01FC010F0A8
:102E400020C011F026C012F027C013F086EC14F059
:102E50000FC01EF010C01FF011C020F000D01200F3
:102E60007F0E111410100F10D8A401D001D00AD079
:102E700012C0D9FF13C0DAFF000EDE6E000EDD6E49
:102E80002ED02DD011507F0B146ED8901434156EA7
:102E9000166A163612C0D9FF13C0DAFF15C0DEFF5E
:102EA00016C0DDFF1034E836010B146E145012C04A
:102EB000D9FF13C0DAFFDE12000EDD1212C0D9FFF7
:102EC00013C0DAFF820EDE26FF0EDD221180118292
:102ED000118411861188118A119C109E00D0120055
:102EE00001EE01F0910EEE6AE806FDE100EE60F001
:102EF000470EEE6AE806FDE1506A00EE42F00A0E67
:102F0000EE6AE806FDE1400EF66E340EF76E000E36
:102F1000F86E00EEE2F010EE1CF00900F5CFEEFFC7
:102F2000E550E150FAE1A00EF66E340EF76E000E99
:102F3000F86E00EE4CF010EE04F00900F5CFEEFF55
:102F4000E550E150FAE10001F2EF19F0D00EF26E17
:102F5000A00E0F010F01266F000E0F010F01256F4C
:102F6000000E0F010F01246F000E0F010F01236FE0
:102F7000000E946E000E956E99689868010E8C6E26
:102F8000949C948EAC98AC9CAC8AAB9CAB88AB8E7A
:102F90009D8A6596AC94110EAF6E9288000E936E6A
:102FA000680ED56E000ED66EB40E0F6E870EE82E2C
:102FB000FED70F2EFCD71200000E166E000E156EF7
:102FC00012501110D8B401D001D027D0136E010EC9
:102FD000146E135005D0D89011361236142A00D032
:102FE00012AE01D001D0F7D701D000D0D89015365D
:102FF000163611500F5C12501058D8A001D001D0D5
:1030000006D011500F5E1250105A158000D0D89083
:1030100012321132142EEAD700D015C00FF016C0AC
:1030200010F01200000E0F6EC00E106EA80E116E82
:10303000000E126E4CC01EF04DC01FF04EC020F0AE
:103040004FC021F0020ED8901E361F362036213692
:10305000E82EF9D7040ED8901E361F3620362136BA
:10306000E82EF9D71EC013F01FC014F020C015F0D1
:1030700021C016F004EC14F00F04CB6EBB86BB84A9
:10308000CA80CA92CA84949412001504D8A401D0AC
:1030900001D00CD0000EF66E000EF76E1A0EF86E10
:1030A00016500F0B8009F56E0C000CD0000EF66E5A
:1030B000000EF76E1A0EF86E16500F0BC009F56E63
:1030C0000C0000D0480E196ECF0EE82EFED7192E38
:1030D000FCD717C00FF018C010F000EC16F0480E27
:1030E000196ECF0EE82EFED7192EFCD71200000E57
:1030F000176E000E186E000E196E000E1A6E00D0BC
:103100000FA001D001D009D0135017261450182257
:103110001550192216501A2200D0D89013361436A2
:1031200015361636D8901232113210320F32125034
:103130000F1010101110D8A401D001D0E1D717C082
:103140000FF018C010F019C011F01AC012F01200E0
:10315000A6EC17F012EC18F044EC1AF03CEC1AF064
:1031600057EC15F071EC10F0D58ECD80010ED66EB7
:10317000100E106E610E0F6E00EC16F0226E000E37
:10318000236E2250C70E236401D001D002D00FD08D
:103190000ED0240E226EE70EE82EFED7222EFCD78C
:1031A000232AC70E236401D001D0F3D700D0120028
:1031B0001A501910D8B401D001D023D01B6E010EC3
:1031C0001C6E1B5005D0D89019361A361C2A00D018
:1031D0001AAE01D001D0F7D701D000D01950175C3A
:1031E0001A501858D8A001D001D005D01950175E38
:1031F0001A50185A00D0D8901A3219321C2EEED715
:1032000000D017C017F018C018F01200000EF66EAC
:10321000000EF76E180EF86E0800F5500F0B000147
:1032200000018A6F4450040A4510D8A401D001D08F
:1032300005D0000E456E000E446E00D00001FA0E5F
:103240004424D96E0001000E4520DA6E0001000111
:103250008A51300FDF6E444A452A12001A6E000E62
:103260001B6E1A5018AE01D001D009D0176C181E71
:10327000D8B0182A1A6E010E1B6E1A5000D017C053
:103280000FF018C010F0116A1A6E8E0E126E1A50DE
:103290001BC013F086EC14F00FC017F010C018F02C
:1032A00011C019F000D0120026C02CF027C02DF05C
:1032B00029AE01D001D00DD026C0D9FF27C0DAFF3A
:1032C0002D0EDF6E264A272A286C291ED8B0292AFF
:1032D00000D026C01DF027C01EF028C01FF029C056
:1032E00020F02AC021F02BC022F0FDEC14F000D019
:1032F0001200CBC0D9FFCCC0DAFF0001DECFBDF099
:103300000001DECFBEF00001DDCFBFF0CDC0C0F0C8
:10331000CEC0C1F0CFC0C2F00001A3EC0BF0CBC017
:10332000D9FFCCC0DAFFBDC0DEFFBEC0DEFFBFC02C
:10333000DDFFDD5200D012007F0E00010001BC1540
:103340000001BB110001BA11D8B401D001D00CD0DA
:10335000000E00010001BA1B000E00010001BB1BA2
:10336000800E00010001BC1BBAC0BAF0BBC0BBF0AC
:10337000BCC0BCF01200000E146E000E136E00D024
:103380000FA001D001D005D01150132612501422E5
:1033900000D0D89011361236D89010320F3210501B
:1033A0000F10D8A401D001D0EBD713C00FF014C078
:1033B00010F01200106E000E116E10503A0E0F60D9
:1033C00001D001D00AD02F0E0F6401D001D005D05A
:1033D000106E010E116E105000D011C010F01030A0
:1033E00000D01200A8EC18F0100E106E590E0F6EDF
:1033F00000EC16F0000EF66E000EF76E1A0EF86E68
:10340000010EF56E0C0000D047EC08F0FDD747EF39
:1034100000F017C00FF018C010F0116A1A6E8E0E6F
:10342000126E1A501B6E000E136E1B5086EC14F0B9
:103430000FC017F010C018F011C019F000D0120022
:103440003132333430303030303030305F5F5F5FB6
:103450003132333430303030303030300FC010F053
:103460000F0E10160F380F0B0F0B0A0DF350102410
:10347000116E115000D012009380000EF16EF29286
:10348000F288F28EF28E1200690ECD6EF28CF28E00
:1034900012002E0EE82EFED712004B5000D0120064
:0434A000E02E00001A
:020000040020DA
:08000000FFFFFFFFFFFFFFFF00
:020000040030CA
:0E0000001D036100018B81FFFFC0FFE0FF4088
:00000001FF
