:0400000047EF00F0D6
:10000800FACF01F0FBCF02F0E9CF03F0EACF04F01A
:10001800E1CF05F0E2CF06F0D9CF07F0DACF08F04C
:10002800F3CF09F0F4CF0AF0F6CF0BF0F7CF0CF0CE
:10003800F8CF0DF0F5CF0EF0F2A201D001D006D026
:10004800B9EC16F0F29202D001D000D00EC0F5FF44
:100058000DC0F8FF0CC0F7FF0BC0F6FF0AC0F4FF95
:1000680009C0F3FF08C0DAFF07C0D9FF06C0E2FFE6
:1000780005C0E1FF04C0EAFF03C0E9FF02C0FBFFBF
:0A00880001C0FAFF110023EF15F08C
:101000001F1C1F1E1F1E1F1F1E1F1E1F01000A0068
:101010006400E80310274A616E4665624D617241C3
:1010200070724D61794A756E4A756C41756753658A
:10103000704F63744E6F764465630053756E4D6FE9
:101040006E5475655765645468754672695361746A
:1010500000436F6465204F4B006C6F6F70206F6BA7
:1010600000496E6974206F6B00506F7461723A00B2
:10107000436F64653A00436C61763A0025336448F7
:101080007A0025336400250000009EA001D001D025
:1010900020D000010001964B972B000100019651D2
:1010A000020A9711D8A401D001D011D08C7200018E
:1010B000D6CF92F000010001936B000ED66E000EA9
:1010C00000010001976F000E0001966F00D09E9006
:1010D00000D00001000E2A6E0001AD0E296E100E28
:1010E0002C6E7C0E2B6E92C02DF093C02EF0C2ECB5
:1010F0000CF087A801D001D0FBD0000150B001D086
:1011000001D00CD0000EF66E000EF76E1A0EF86EBF
:10111000010EF56E0C000001508000D0E00E0101C0
:10112000866F000E876FEF0E0101886F000E896FCA
:10113000010187510101891904E101018651010171
:101140008819D8A401D001D09BD00101866F020E6E
:10115000156E010186510101876F000E166E0101A7
:101160008751100E186E510E176EF8EC15F0480EE0
:101170000101866FCF0EE82EFED7862FFCD794C0D4
:10118000C2F095C0C3F000018DEC11F003EC0FF03C
:1011900040C094F041C095F094C0C2F095C0C3F037
:1011A00000018DEC11F00101866F010E156E010139
:1011B00086510101876F000E166E01018751100ED6
:1011C000186E690E176EF8EC15F0480E0101866F67
:1011D000CF0EE82EFED7862FFCD70101866F010EB9
:1011E000156E010186510101876F060E166E010111
:1011F00087510101010E186E0101010E176EF8EC06
:1012000015F0480E0101866FCF0EE82EFED7862F0F
:10121000FCD70101866F010E156E01018651010197
:10122000876F090E166E01018751100E186E860E1B
:10123000176EF8EC15F0480E0101866FCF0EE82E00
:10124000FED7862FFCD70101866F020E156E0101B5
:1012500086510101876F0B0E166E01018751000147
:10126000000E186E0001AD0E176EF8EC15F0480E6A
:101270000101866FCF0EE82EFED7862FFCD738D01F
:101280000101866F010E156E010186510101876F04
:10129000000E166E01018751100E186E700E176E3B
:1012A000F8EC15F0480E0101866FCF0EE82EFED740
:1012B000862FFCD70101866F010E156E0101865144
:1012C0000101876F050E166E010187510001000EA6
:1012D000186E0001F90E176EF8EC15F0480E0101BA
:1012E000866FCF0EE82EFED7862FFCD701D000D018
:1012F00087B801D001D06AD1000150A001D001D03F
:101300000CD0000EF66E000EF76E1A0EF86E010E7F
:10131000F56E0C000001509000D0000E126E640EAD
:10132000116ED00E00010001F9250F6E106AFF0E3C
:10133000102249EC17F000010001FB510F240101BC
:10134000866F000E10200101876F000E126E0A0ECC
:10135000116ED00E00010001FA250F6E106AFF0E0B
:10136000102249EC17F00F50010186250101886F0A
:101370001050010187210101896FD00E01018825DC
:10138000176EFF0E01018921186EE1EC16F017C0EF
:101390002DF018C02EF019C02FF0AE0E306E230EB7
:1013A000316E410E326E5FEC10F02DC08AF12EC00E
:1013B0008BF12FC08CF18AC180F18BC181F18CC17E
:1013C00082F101014FEC14F080C18DF181C18EF1E9
:1013D00082C18FF18DC13EF08EC13FF08FC140F0D0
:1013E00033EC0EF03EC090F03FC091F0480E01018A
:1013F000866FCF0EE82EFED7862FFCD70101866FB1
:10140000010E156E010186510101876F000E166EE7
:1014100001018751100E186E760E176EF8EC15F05C
:10142000480E0101866FCF0EE82EFED7862FFCD71F
:10143000000100019A510F0AD8B401D001D015D093
:101440000101866F010E156E010186510101876F42
:10145000050E166E010187510001000E186E000185
:10146000F90E176EF8EC15F000D0480E0101866FEA
:10147000CF0EE82EFED7862FFCD7100E106E860EEC
:101480000F6EB3EC13F0480E0101866FCF0EE82EFD
:10149000FED7862FFCD70101866F020E156E010163
:1014A00086510101876F0B0E166E010187510001F5
:1014B000000E186E0001AD0E176EF8EC15F0480E18
:1014C0000101866FCF0EE82EFED7862FFCD7E00EE7
:1014D0000101866F000E876FEF0E0101886F000E0D
:1014E000896F010187510101891904E101018651C8
:1014F00001018819D8B401D001D01BD00101866F39
:10150000020E156E010186510101876F000E166EE5
:1015100001018751100E186E700E176EF8EC15F061
:10152000480E0101866FCF0EE82EFED7862FFCD71E
:1015300000D0E00E0101866F000E876FEF0E0101F3
:10154000886F000E896F010187510101891904E13B
:101550000101865101018819D8A401D001D022D0FF
:101560000101866F020E156E010186510101876F20
:10157000000E166E01018751100E186E510E176E77
:10158000F8EC15F0480E0101866FCF0EE82EFED75D
:10159000862FFCD790C0C2F091C0C3F000018DEC43
:1015A00011F000D086B601D001D005D000010001B5
:1015B000904B912B00D086B801D001D007D000010C
:1015C00000019007D8A0910701D000D012000F0EA3
:1015D0000001D36F0001CDC0D4F00001CEC0D5F022
:1015E0000001CFC0D6F00001D3290001D76F05D08C
:1015F0000001D890D633D533D4330001D72FF8D794
:101600000001D45100010001DA6F0F0E0001D36F09
:101610000001D0C0D4F00001D1C0D5F00001D2C08B
:10162000D6F00001D3290001D76F05D00001D89072
:10163000D633D533D4330001D72FF8D70001D45196
:1016400000010001D96F00010001DA51D8B401D0C6
:1016500001D019D000010001D95100010001DA6167
:1016600001D001D017D000010001DA5100080001BB
:101670000001D9250001D36F190E0001D35DD8A058
:1016800001D001D007D0D0C0CDF0D1C0CEF0D2C0B3
:10169000CFF077D100010001D951D8B401D001D0E9
:1016A00019D000010001DA5100010001D96101D017
:1016B00001D017D000010001D9510008000100013C
:1016C000DA250001D36F190E0001D35DD8A001D037
:1016D00001D007D0CDC0CDF0CEC0CEF0CFC0CFF07E
:1016E00050D10001D36F060E00010001D86F000138
:1016F000D35100010001CFAF01D001D004D00001CF
:101700000001D88F00D000010001D2AF01D001D07C
:1017100003D000010001D88D00010001CE8FFF0E23
:1017200000010001CD17FF0E00010001CE17000ED1
:1017300000010001CF1700010001D18FFF0E000151
:101740000001D017FF0E00010001D117000E0001AB
:101750000001D21700010001D95100010001DA6136
:1017600001D001D03AD000D00001D8900001D0378C
:101770000001D1370001D23700010001D907000173
:101780000001D95100010001DA19D8B401D001D00B
:1017900019D000010001D8070001D851070BD8A4C7
:1017A00001D001D0E1D70ED00DD00CD00001D890DF
:1017B0000001CF330001CE330001CD330001000121
:1017C000DA2B00D000010001D95100010001DA63D9
:1017D00001D001D0EBD744D043D000010001DA5151
:1017E00000010001D96101D001D03AD000D0000140
:1017F000D8900001CD370001CE370001CF3700016E
:101800000001DA0700010001D95100010001DA19D5
:10181000D8B401D001D019D000010001D8070001CF
:10182000D851070BD8A401D001D0E1D70ED00DD0EC
:101830000CD00001D8900001D2330001D133000157
:10184000D03300010001D92B00D000010001D95193
:1018500000010001DA6301D001D0EBD701D000D044
:1018600000010001D8AF01D001D018D0FF0E000157
:101870000001CD1BFF0E00010001CE1BFF0E000179
:101880000001CF1B010E00010001CD27000E000159
:101890000001CE23000E00010001CF230001000152
:1018A000D8AD01D001D019D0FF0E00010001D01B2E
:1018B000FF0E00010001D11BFF0E00010001D21B31
:1018C000010E00010001D027000E00010001D1230C
:1018D000000E00010001D22300D00001D36F000EE2
:1018E00000010001D86F0001D35100010001CD516A
:1018F00000010001D02700010001CE5100010001CC
:10190000D12300010001CF5100010001D2230001C9
:101910000001D2AF01D001D021D0FF0E00010001A3
:10192000D01BFF0E00010001D11BFF0E00010001C2
:10193000D21B010E00010001D027000E00010001A2
:10194000D123000E00010001D2230001D36F010E4C
:1019500000010001D86F0001D35100D0D0C00FF0BA
:10196000D1C010F0D2C011F0DAC012F0D8C013F01C
:1019700093EC12F00FC0CDF010C0CEF011C0CFF03C
:1019800000D01200000E356E2D0E346E4FD13F5038
:10199000250AD8B401D001D009D029C0D9FF2AC066
:1019A000DAFF3FC0DFFF294A2A2A40D1000E3E6EEF
:1019B000000E3D6E316E000E376E31502BC0F6FFBB
:1019C0002CC0F7FF000EF86E0800F5CF0FF068ECA2
:1019D00017F0D8A001D001D03FD0000E3E6E000E0F
:1019E0003D6E00D03DC00FF03EC010F0000E126EF4
:1019F0000A0E116E49EC17F00FC03DF010C03EF01A
:101A00002BC0F6FF2CC0F7FF000EF86E0800F5CFD4
:101A100031F0D00E3124326E336AFF0E3322325051
:101A20003D2633503E222B4A2C2A2BC0F6FF2CC0D9
:101A3000F7FF000EF86E0800F5CF0FF068EC17F016
:101A4000D8B001D001D0CED707D006D005D003D171
:101A50001DD01CD0EBD01AD02B50316E2C50326ED2
:101A60002B4A2C2A31C0F6FF32C0F7FF000EF86E69
:101A70000800F5CF3FF03F50000AD8B4ECD0640A1C
:101A8000D8B404D00D0AD8B401D0D0D034C0D9FF16
:101A900035C0DAFFDECF38F0DDCF39F0020E342664
:101AA000000E352239AE01D001D007D0030E371217
:101AB000386C391ED8B0392A00D0316E010E3F6E15
:101AC00031503F50050AD8A401D001D002D024D013
:101AD00023D03F50020D0C0EF324F66E100EF420AE
:101AE000F76EF86A000EF8220900F5CF31F0090010
:101AF000F5CF32F03150385C32503958D8B001D07F
:101B000001D002D009D008D03F2A3F50050AD8A4FE
:101B100001D001D0DED700D03E503D10D8B401D066
:101B200001D00AD03750030BD8B401D001D004D073
:101B30003D06D8A03E0600D0800E3FBE7F0E316E1F
:101B40003D503F5C3E50800A3158D8B001D001D0A2
:101B500007D03F503D5E000E3FBEFF0E3E5A05D0FF
:101B6000000E3E6E000E3D6E00D03E503D10D8B4CB
:101B700001D001D014D000D029C0D9FF2AC0DAFF8B
:101B8000200EDF6E294A2A2A3D06D8A03E063E5086
:101B90003D10D8A401D001D0EFD701D000D03750EC
:101BA000030BD8B401D001D009D029C0D9FF2AC075
:101BB000DAFF2D0EDF6E294A2A2A00D03FC036F008
:101BC0002DD03650020D0C0EF324F66E100EF420BC
:101BD000F76EF86A000EF8220900F5CF11F00A003E
:101BE000F5CF12F038C00FF039C010F08FEC15F0BF
:101BF0000FC017F010C018F0000E1A6E0A0E196E02
:101C00008BEC16F01750300F3F6E29C0D9FF2AC059
:101C1000DAFF3FC0DFFF294A2A2A00D036063628DD
:101C2000D8A401D001D0CDD701D000D02B50316E37
:101C30002C50326E2B4A2C2A31C0F6FF32C0F7FFEF
:101C4000000EF86E0800F5CF3FF03F6601D001D0DE
:101C50009ED601D000D029C0D9FF2AC0DAFF000EDD
:101C6000DF6E00D012000F0E0001B76F3EC0B8F05B
:101C70003FC0B9F040C0BAF00001B7290001BB6F06
:101C800005D00001D890BA33B933B8330001BB2F67
:101C9000F8D70001B85100010001C16F0001C16710
:101CA00001D001D00AD0000E3E6E000E3F6E000E35
:101CB000406E000E416EA6D0A5D0170E0001B76F82
:101CC0003EC0B8F03FC0B9F040C0BAF00001B7293B
:101CD0000001BB6F05D00001D890BA33B933B833D7
:101CE0000001BB2FF8D70001B85100010001BC6F03
:101CF0003F8EFF0E3E16FF0E3F16000E40163E5062
:101D000000010001BD6F3F500001BE6F4050000157
:101D1000BF6F0001C06B8E0E00010001C15F0001AA
:101D20000001C1AF01D001D024D000010001C15198
:101D3000800A8F0FD8B001D001D00BD0000E3E6EBC
:101D4000000E3F6E000E406E000E416E5BD05AD00A
:101D500000D00001D8900001C0330001BF33000162
:101D6000BE330001BD3300010001C13FF2D729D0CD
:101D700028D0170E00010001C16501D001D019D093
:101D8000000E3E6E000E3F6E000E406E000E416E65
:101D900039D038D00ED00001D8900001BD370001F5
:101DA000BE370001BF370001C03700010001C10785
:101DB00000D000010001C16701D001D0ECD701D0F3
:101DC00000D000010001BC51D8B401D001D011D025
:101DD00000010001C01F0001BF1F0001BE1F000164
:101DE000BD6D000E0001BE230001BF230001C02312
:101DF00000D0BDC03EF0BEC03FF0BFC040F0C0C08C
:101E000041F000D01200C28200D0C2B201D001D095
:101E1000FCD700D0340EC35C0B0EC458D8A001D040
:101E200001D002D08F8002D08F9000D00001C3CFAC
:101E3000B7F00001C4CFB8F000010001B96B000198
:101E4000BA6BFF0E136E030E146E000E156E000EAD
:101E5000166EB7C00FF0B8C010F0B9C011F0BAC01C
:101E600012F02AEC16F00FC01BF010C01CF011C0CD
:101E70001DF012C01EF0FF0E1F6E0F0E206E000E22
:101E8000216E000E226E01EC14F01BC0BDF01CC0D0
:101E9000BEF01DC0BFF01EC0C0F0640E136E000E79
:101EA000146E000E156E000E166EBDC00FF0BEC093
:101EB00010F0BFC011F0C0C012F02AEC16F00FC035
:101EC0001BF010C01CF011C01DF012C01EF0FF0E60
:101ED0001F6E030E206E000E216E000E226E01ECAE
:101EE00014F01BC0BBF01CC0BCF0BBC048F001012B
:101EF000010E2A6E0101010E296E100E2C6E820E4B
:101F00002B6E640E136E000E146E000E156E000E16
:101F1000166EBDC00FF0BEC010F0BFC011F0C0C043
:101F200012F02AEC16F00FC01BF010C01CF011C00C
:101F30001DF012C01EF0FF0E1F6E030E206E000E6D
:101F4000216E000E226E01EC14F01BC02DF01CC09F
:101F50002EF01DC02FF01EC030F0C2EC0CF0BDC042
:101F600040F0BEC041F000D01200200E0F010F0162
:101F7000266F9280010E0F010F01256F000E0F01D9
:101F80000F01246F000E0F010F01236F000EC26EB0
:101F9000000EC16E800EC06E010EC26E98908F90C2
:101FA000B40E0F6E870EE82EFED70F2EFCD7B40EA0
:101FB0000F6E870EE82EFED70F2EFCD7000EF66EA2
:101FC000000EF76E1A0EF86E330EF56E0C00B40E9E
:101FD0000F6E870EE82EFED70F2EFCD7000EF66E82
:101FE000000EF76E1A0EF86E330EF56E0C00B40E7E
:101FF0000F6E870EE82EFED70F2EFCD7000EF66E62
:10200000000EF76E1A0EF86E330EF56E0C00B40E5D
:102010000F6E870EE82EFED70F2EFCD7000EF66E41
:10202000000EF76E1A0EF86E380EF56E0C00B40E38
:102030000F6E870EE82EFED70F2EFCD7000EF66E21
:10204000000EF76E1A0EF86E0C0EF56E0C00B40E44
:102050000F6E870EE82EFED70F2EFCD7000EF66E01
:10206000000EF76E1A0EF86E060EF56E0C00B40E2A
:102070000F6E870EE82EFED70F2EFCD7000EF66EE1
:10208000000EF76E1A0EF86E010EF56E0C00B40E0F
:102090000F6E870EE82EFED70F2EFCD7000EF66EC1
:1020A000000EF76E1A0EF86E800EF56E0C00B40E70
:1020B0000F6E870EE82EFED70F2EFCD712000F0EE4
:1020C000336E2DC034F02EC035F02FC036F03328DB
:1020D000376E04D0D890363235323432372EFAD7B4
:1020E0003450386E386601D001D008D0000E2D6E05
:1020F000000E2E6E000E2F6E80D07FD00F0E336E2E
:1021000030C034F031C035F032C036F03328376E8D
:1021100004D0D890363235323432372EFAD7345094
:102120003D6E3D6601D001D008D0000E2D6E000E30
:102130002E6E000E2F6E61D060D03D507B0F382682
:102140002FC03DF032503D1A800E3D162E8E318E3E
:10215000FF0E3016FF0E3116000E3216000E396ECD
:10216000000E3A6E000E3B6E336E070E3C6E33501F
:1021700000D02DA001D001D007D0305039263150E9
:102180003A2232503B2200D0D8902F322E322D32BC
:10219000D8903036313632363C2EEBD700D0336E05
:1021A000090E3C6E335000D02DA001D001D007D0D5
:1021B0003050392631503A2232503B2200D0D8904C
:1021C0002F322E322D32D8903B323A3239323C2ED9
:1021D000EBD700D039C00FF03AC010F03BC011F07F
:1021E00038C012F03DC013F093EC12F00FC02DF088
:1021F00010C02EF011C02FF000D012000F0E226E72
:102200001CC023F01DC024F01EC025F02228266E1D
:1022100004D0D890253224322332262EFAD72350E8
:102220002B6E2B6601D001D008D0000E1C6E000E64
:102230001D6E000E1E6E70D06FD00F0E226E1FC06E
:1022400023F020C024F021C025F02228266E04D0DF
:10225000D890253224322332262EFAD723502C6EE2
:102260002C6601D001D008D0000E1C6E000E1D6E31
:10227000000E1E6E51D050D0000E286E000E296E3A
:10228000000E2A6E2C50890F2B5E1EC02CF02150A0
:102290002C1A800E2C161D8EFF0E1C16FF0E1D16FE
:1022A000000E1E16208EFF0E1F16FF0E2016000EAB
:1022B0002116226E180E276E2250D8902836293605
:1022C0002A361F501C5C20501D5821501E58D8A083
:1022D00001D001D007D01F501C5E20501D5A215044
:1022E0001E5A2880D8901C361D361E36272EE5D75C
:1022F00000D028C00FF029C010F02AC011F02BC068
:1023000012F02CC013F093EC12F00FC01CF010C0B0
:102310001DF011C01EF000D01200FF0E00010001E0
:10232000C25D030E0001C359D8B001D001D078D0EE
:102330004CC0C4F04DC0C5F04EC0C6F04FC0C7F091
:10234000040ED8900001C437C537C637C737E82E0A
:10235000F8D7C4C013F0C5C014F0C6C015F0C7C08C
:1023600016F0000E0F6EC00E106EA80E116E000E4D
:10237000126E11EC12F00FC01EF010C01FF011C051
:1023800020F012C021F099EC14F01EC030F01FC0F4
:1023900031F020C032F0C00E1F6E7F0E206E440E52
:1023A000216EC2C017F0C3C018F097EC17F017C029
:1023B0001CF018C01DF019C01EF0FEEC10F01CC07F
:1023C0002DF01DC02EF01EC02FF05FEC10F02DC0C0
:1023D0003EF02EC03FF02FC040F033EC0EF03EC078
:1023E000C2F03FC0C3F000010001C2A101D0BB8A0E
:1023F00000010001C2B101D0BB9ABB980001C2C06C
:10240000C4F00001C3C0C5F00001D890C533C43387
:102410000001D890C533C4330001C451BC6E00D054
:102420001200176E000E196E175016AE01D001D0B3
:102430000DD0161E151E141E136C000E142215222C
:102440001622176E010E196E175000D012AE01D071
:1024500001D00BD0121E111E101E0F6C000E102288
:1024600011221222010E191A00D0000E1A6E000E4F
:102470001B6E000E1C6E000E1D6E165013101410F5
:102480001510D8B401D001D036D0176E010E186ED9
:10249000175007D0D8901336143615361636182A2A
:1024A00000D016AE01D001D0F5D701D000D0D89021
:1024B0001A361B361C361D3613500F5C145010583C
:1024C0001550115816501258D8A001D001D00AD07A
:1024D00013500F5E1450105A1550115A1650125ABC
:1024E0001A8000D0D8901632153214321332182EBA
:1024F000DED701D000D01950D8B401D001D009D016
:102500001D1E1C1E1B1E1A6C000E1B221C221D22CF
:1025100000D01AC00FF01BC010F01CC011F01DC07D
:1025200012F000D012001250D8B401D001D008D05F
:102530000F5010101110D8A401D001D010D000D02D
:10254000000E0F6E000E106E000E116E62D061D084
:1025500006D0122AD890113210320F3200D0000E5D
:102560000F14146E000E1014156EFE0E1114166E5C
:10257000145015101610D8A401D001D0EAD70DD0F0
:102580000CD0122A010E0F26000E1022000E11226E
:10259000D890113210320F3200D0000E0F14146E8A
:1025A000000E1014156EFF0E1114166E1450151037
:1025B0001610D8A401D001D0E4D707D006D0120657
:1025C000D8900F361036113600D010AE01D001D0A1
:1025D000F6D712B001D001D002D0109E00D0D89012
:1025E00012321250166E156A146A14500F121550DA
:1025F0001012165011121350D8B401D001D002D0CD
:10260000118E00D00FC00FF010C010F011C011F0EB
:1026100000D01200550E7E6EAA0E7E6E0F010F01C5
:102620005F8B0F010F015F9FCEEC17F00009D8A45C
:1026300001D001D029D0030E0F010F015F13180E36
:102640000F010F015C6F000E0F010F015D6F170E80
:102650000F010F015C6F120E0F010F015D6F160E5F
:102660000F010F015C6F010E0F010F015D6F320E44
:102670000F010F015C6F430E0F010F015D6F0F6EB5
:10268000010E4B6E0F5000D0010E0F010F01536F62
:10269000000E0F010F01536F000E0F010F015E6F4F
:1026A000000E0F010F015A6F0F010F015F8F550EC2
:1026B0007E6EAA0E7E6E0F010F015F9B1200C2C0DC
:1026C0000FF0C3C010F0C4C011F00001000E136E73
:1026D0000001C80E126EE3EC14F000010001C9AF56
:1026E00001D001D00ED0000E00010001C26F000E1B
:1026F00000010001C36F000E00010001C46F32D061
:1027000031D0150E00010001C85D000E0001C9594D
:10271000D8A001D001D007D0C2C0C2F0C3C0C3F05E
:10272000C4C0C4F01FD0C2C03EF0C3C03FF0C4C09C
:1027300040F033EC0EF03EC01EF03FC01FF040C032
:1027400020F041C021F099EC14F01EC0C5F01FC06C
:10275000C6F020C0C7F0C5C0C2F0C6C0C3F0C7C035
:10276000C4F000D01200116E000E146E115029D06A
:102770001450010DF3500F24116EF4501020126EFE
:1027800011C0F6FF12C0F7FF000EF86E0F0EF764CF
:1027900003D00800F55005D0F6CFE9FFF7CFEAFFE8
:1027A000EF50136E020EF66E000EF76E1A0EF86EF4
:1027B00013C0F5FF0C000B000E00142ACAEC17F032
:1027C00000D01450010DF3500F24116EF45010205E
:1027D000126E11C0F6FF12C0F7FF000EF86E0F0E5A
:1027E000F76403D00800F55005D0F6CFE9FFF7CF26
:1027F000EAFFEF500009D8A401D001D0B9D700D02A
:102800001200000E246E000E256E000E266E000EC5
:10281000276E22501F1020102110D8B401D001D0F3
:1028200035D0236E010E286E235007D0D8901F3666
:10283000203621362236282A00D022AE01D001D0FF
:10284000F5D701D000D0D890243625362636273645
:102850001F501B5C20501C5821501D5822501E58E0
:10286000D8A001D001D00AD01F501B5E20501C5AA6
:1028700021501D5A22501E5A248000D0D890223256
:10288000213220321F32282EDED700D024C01BF088
:1028900025C01CF026C01DF027C01EF0120080C10C
:1028A000C2F081C1C3F082C1C4F000015FEC13F03B
:1028B000C2C0CAF0C3C0CBF0C4C0CCF000012AEC47
:1028C00017F0CAC0CDF0CBC0CEF0CCC0CFF080C1E5
:1028D000D0F081C1D1F082C1D2F00001E7EC0AF062
:1028E000CDC083F1CEC084F1CFC085F10101010ECE
:1028F00000010001DC6F0101800E0001DB6F83C16C
:10290000DDF084C1DEF085C1DFF0000107EC17F0D7
:1029100080C1C2F081C1C3F082C1C4F000015FEC8C
:1029200013F0C2C080F1C3C081F1C4C082F100D0F5
:102930001200226E000E276E2250226E8E0E266E20
:10294000225021AE01D001D015D0211E201E1F1E05
:102950001E6C000E1F2220222122226E010E276EE5
:10296000225008D007D0D890213220321F321E3298
:10297000262A00D0000E1E14226E000E1F14236E95
:10298000000E2014246EFF0E2114256E25502210F7
:1029900023102410D8A401D001D0E5D700D01EC048
:1029A0000FF01FC010F020C011F026C012F027C099
:1029B00013F093EC12F00FC01EF010C01FF011C006
:1029C00020F000D012007F0E111410100F10D8A4A8
:1029D00001D001D00AD012C0D9FF13C0DAFF000E17
:1029E000DE6E000EDD6E2ED02DD011507F0B146EDA
:1029F000D8901434156E166A163612C0D9FF13C05B
:102A0000DAFF15C0DEFF16C0DDFF1034E836010B1B
:102A1000146E145012C0D9FF13C0DAFFDE12000E7C
:102A2000DD1212C0D9FF13C0DAFF820EDE26FF0EC0
:102A3000DD2211801182118411861188118A119C66
:102A4000109E00D0120001EE01F07F0EEE6AE80643
:102A5000FDE100EE60F0570EEE6AE806FDE1506A17
:102A600000EE42F00A0EEE6AE806FDE15C0EF66E3C
:102A70002F0EF76E000EF86E00EEE0F010EE1EF076
:102A80000900F5CFEEFFE550E150FAE1A20EF66E37
:102A90002F0EF76E000EF86E00EE4CF010EE04F004
:102AA0000900F5CFEEFFE550E150FAE1000180EFBB
:102AB00017F0D00EF26EA00E0F010F01266F000E60
:102AC0000F010F01256F000E0F010F01246F000E83
:102AD0000F010F01236F000E946E000E956E996822
:102AE0009868010E8C6E949C948EAC98AC9CAC8AC9
:102AF000AB9CAB88AB8E9D8A6596AC94110EAF6E85
:102B00009288000E936E680ED56E000ED66EB40ECF
:102B10000F6E870EE82EFED70F2EFCD71200000E88
:102B2000166E000E156E12501110D8B401D001D0DF
:102B300027D0136E010E146E135005D0D8901136A5
:102B40001236142A00D012AE01D001D0F7D701D02E
:102B500000D0D8901536163611500F5C1250105810
:102B6000D8A001D001D006D011500F5E1250105ADB
:102B7000158000D0D89012321132142EEAD700D02E
:102B800015C00FF016C010F01200000E0F6EC00E30
:102B9000106EA80E116E000E126E4CC01EF04DC0CD
:102BA0001FF04EC020F04FC021F0020ED8901E360C
:102BB0001F3620362136E82EF9D7040ED8901E365F
:102BC0001F3620362136E82EF9D71EC013F01FC05D
:102BD00014F020C015F021C016F011EC12F00F0413
:102BE000CB6EBB86BB84CA80CA92CA8494941200FE
:102BF0001504D8A401D001D00CD0000EF66E000E42
:102C0000F76E1A0EF86E16500F0B8009F56E0C0059
:102C10000CD0000EF66E000EF76E1A0EF86E1650FF
:102C20000F0BC009F56E0C0000D0480E196ECF0EC8
:102C3000E82EFED7192EFCD717C00FF018C010F0E1
:102C4000B3EC13F0480E196ECF0EE82EFED7192EF6
:102C5000FCD71200000E176E000E186E000E196ED3
:102C6000000E1A6E00D00FA001D001D009D0135071
:102C70001726145018221550192216501A2200D067
:102C8000D8901336143615361636D89012321132C3
:102C900010320F3212500F1010101110D8A401D0A2
:102CA00001D0E1D717C00FF018C010F019C011F013
:102CB0001AC012F0120059EC15F0C5EC15F0C5EC75
:102CC00017F0BDEC17F00AEC13F0B5EC0FF0D58E51
:102CD000CD80010ED66E100E106E610E0F6EB3EC2D
:102CE00013F0226E000E236E2250C70E236401D013
:102CF00001D002D00FD00ED0240E226EE70EE82EA7
:102D0000FED7222EFCD7232AC70E236401D001D080
:102D1000F3D700D012001A501910D8B401D001D046
:102D200023D01B6E010E1C6E1B5005D0D890193697
:102D30001A361C2A00D01AAE01D001D0F7D701D024
:102D400000D01950175C1A501858D8A001D001D0E3
:102D500005D01950175E1A50185A00D0D8901A3260
:102D600019321C2EEED700D017C017F018C018F07B
:102D70001200000EF66E000EF76E180EF86E0800C8
:102D8000F5500F0B000100019A6F4450040A4510E2
:102D9000D8A401D001D005D0000E456E000E446EBF
:102DA00000D00001F90E4424D96E0001000E452028
:102DB000DA6E000100019A51300FDF6E444A452A55
:102DC00012001A6E000E1B6E1A5018AE01D001D000
:102DD00009D0176C181ED8B0182A1A6E010E1B6E77
:102DE0001A5000D017C00FF018C010F0116A1A6EF8
:102DF0008E0E126E1A501BC013F093EC12F00FC01F
:102E000017F010C018F011C019F000D01200DBC08C
:102E1000D9FFDCC0DAFF0001DECFCDF00001DECF4C
:102E2000CEF00001DDCFCFF0DDC0D0F0DEC0D1F0BC
:102E3000DFC0D2F00001E7EC0AF0DBC0D9FFDCC054
:102E4000DAFFCDC0DEFFCEC0DEFFCFC0DDFFDD523A
:102E500000D012007F0E00010001CC150001CB1143
:102E60000001CA11D8B401D001D00CD0000E00016D
:102E70000001CA1B000E00010001CB1B800E0001E7
:102E80000001CC1BCAC0CAF0CBC0CBF0CCC0CCF088
:102E90001200000E146E000E136E00D00FA001D0B1
:102EA00001D005D0115013261250142200D0D89012
:102EB00011361236D89010320F3210500F10D8A49D
:102EC00001D001D0EBD713C00FF014C010F01200E6
:102ED000106E000E116E10503A0E0F6001D001D02E
:102EE0000AD02F0E0F6401D001D005D0106E010E54
:102EF000116E105000D011C010F0103000D0120030
:102F00005BEC16F0100E106E590E0F6EB3EC13F052
:102F1000000EF66E000EF76E1A0EF86E010EF56ECC
:102F20000C0000D045EC08F0FDD747EF00F017C0CB
:102F30000FF018C010F0116A1A6E8E0E126E1A5031
:102F40001B6E000E136E1B5093EC12F00FC017F0A7
:102F500010C018F011C019F000D012003132333413
:102F600000303030300030303030005F5F5F5F0065
:102F7000313233340030303030009380000EF16E47
:102F8000F292F288F28EF28E1200690ECD6EF28C01
:102F9000F28E12002E0EE82EFED712004B5000D0FB
:062FA0001200E02E00000B
:020000040020DA
:08000000FFFFFFFFFFFFFFFF00
:020000040030CA
:0E0000001D036100018B81FFFFC0FFE0FF4088
:00000001FF
